:100000000C945F000C9487000C9487000C9487007C
:100010000C9487000C9487000C9487000C94870044
:100020000C9487000C9487000C9487000C94870034
:100030000C9487000C9487000C9487000C94870024
:100040000C9447040C9487000C9480070C94C3070D
:100050000C9487000C9487000C9487000C94870004
:100060000C9487000C948700000000070002010038
:100070000003040600000000000000000102040864
:100080001020408001020408102001020408102002
:10009000040404040404040402020202020203032E
:1000A0000303030300000000250028002B000000CC
:1000B0000000240027002A00120286081B021124D7
:1000C0001FBECFEFD8E0DEBFCDBF11E0A0E0B1E0B2
:1000D000EAE4F2E102C005900D92A438B107D9F725
:1000E00022E0A4E8B1E001C01D92A235B207E1F719
:1000F00010E0CEE5D0E004C02197FE010E940B097C
:10010000CC35D107C9F70E94D9060C9418090C9474
:1001100000009A01AB01BC0186E891E00E94DB037C
:1001200086E891E00C94B60220E030E0A901BC0121
:1001300086E891E00E94DB0386E891E00C94B60229
:1001400026E030E0A901481B590BE7E0E49FC0011D
:10015000E59F900D112480FD03C0860F971F04C0FA
:10016000261B370B820F931F01960895AF92BF9203
:10017000CF92DF92EF92FF920F931F93CF93DF9373
:10018000CDB7DEB724964EAD5FAD24970D851E85A5
:10019000EF84F888BE01635F7F4F20E030E02017D6
:1001A000310724F5D901AA0FBB1F80E090E08E151E
:1001B0009F05BCF4E0918401F0918501EA0FFB1FDB
:1001C0000190F081E02DE80FF91F5F01A40EB51E2C
:1001D0006B01C80ED91EF601D480F501D0820196BC
:1001E000E6CF2F5F3F4F695F7F4FD9CFDF91CF9130
:1001F0001F910F91FF90EF90DF90CF90BF90AF9045
:1002000008958F929F92AF92BF92CF92DF92EF921A
:10021000FF920F931F93CF93DF936C0100E010E0E8
:100220004C0126E0820E911C5801AA0CBB1CE60171
:10023000E12CF12C8C169D0684F1809100019091A7
:100240000101C817D9072CF09E01281B390BC901E1
:1002500001C0CE01E0918401F0918501EA0DFB1D02
:1002600020813181F901E80FF91F8081B7018133C5
:1002700051F4C8010E94A00040E059E960E070E03C
:100280000E94890005C0C8010E94A0000E9494003D
:1002900021963FEFE31AF30ACDCF0F5F1F4F0730D0
:1002A000110511F6DF91CF911F910F91FF90EF9003
:1002B000DF90CF90BF90AF909F908F90089568EEA1
:1002C00073E080E090E00E94B6041F921F928DB709
:1002D0009EB7C5970FB6F8949EBF0FBE8DBFADB742
:1002E000BEB7119685E3EFE3F1E001900D928A9598
:1002F000E1F70E94B6008DB79EB7C7960FB6F89487
:100300009EBF0FBE8DBF80E090E00E94010164E6B9
:1003100070E080E090E00E94B6041F921F928DB7BB
:100320009EB7C5970FB6F8949EBF0FBE8DBFADB7F1
:10033000BEB7119685E3EAE0F1E001900D928A954F
:10034000E1F70E94B6008DB79EB7C7960FB6F89436
:100350009EBF0FBE8DBF80E090E00E94010164E669
:1003600070E080E090E00C94B6049F92AF92BF9250
:10037000CF92DF92EF92FF920F931F93CF93DF9371
:100380007C016B01880F991F0E94AC055C01C82F8E
:10039000DB2D00E010E030E3932E0E151F05B4F4C2
:1003A000C6010E94AC059983888320E030E02C15BB
:1003B0003D0544F4E881F981E20FF31F90822F5F3D
:1003C0003F4FF5CF0F5F1F4F2296E7CFC501DF915B
:1003D000CF911F910F91FF90EF90DF90CF90BF9042
:1003E000AF909F90089540E855E260E070E084EAA5
:1003F00091E00E94FE0786E891E00E94330286E8C1
:1004000091E00E94B602609100017091010180911B
:100410000201909103010E94B501909385018093A0
:100420008401089522E530E044E06CE370E086E862
:1004300091E00C94B30386E891E00C941F02CF93F3
:10044000DF93EC0188859985009711F00E944106A1
:100450008E8187FD05C060E0DF91CF910C9440054F
:10046000DF91CF910895CF93DF93EC018E8187FDCB
:1004700007C061E00E94400560E08E810E947C051B
:1004800081E08983DF91CF910895EF92FF920F93DE
:100490001F93CF93DF93EC017B01888599850097AB
:1004A00011F00E9441069D858A85981719F084E015
:1004B00090E002C083E090E08E9D80018F9D100D42
:1004C0009E9D100D11241D830C83C8010E94AC0554
:1004D00099878887009741F0A80160E070E00E944A
:1004E0001109FB82EA8204C01D821C821B821A82CF
:1004F000DF91CF911F910F91FF90EF900895FC0134
:1005000031E095858285981330E0CB0126E0969501
:1005100087952A95E1F7282F23702587CB0144E0A2
:10052000969587954A95E1F783708287AB0156953A
:1005300047955695479543704387962F93709487B8
:1005400091E06F3F710511F008F090E090834085D5
:100550005185452B51F091E0281390E0931729F035
:1005600062817381CF010C9445020895CF92DF928E
:10057000EF92FF920F931F93CF93DF93CDB7DEB728
:1005800029970FB6F894DEBF0FBECDBF8C01DC01FA
:1005900018968D919C911997892B09F4A3C00E94FC
:1005A0009104F801C684D784E088F188DC01CB018E
:1005B0008C199D09AE09BF098C329140A105B10586
:1005C00070F3F894D80114968D919C9115979A83A5
:1005D00089831896ED91FC9119977F01BFEFEB1A73
:1005E000FB0A80818987F80190810288F389E02DD8
:1005F000D80154968C91992309F430C09081982B9E
:1006000098879081809589238F838F818E8388E05E
:100610008D8358856F8149853D812E8189819A819D
:10062000D701508347FD252F3A952083262F39F097
:10063000441F00C000006083000000C0F2CF38E01B
:100640004D9160830000019761F7D8015396FC93A8
:10065000EE93529749873D832E833AC09081982B21
:1006600098879081809589238F838F818C8388E000
:100670008B8358856F8149853B812C8189819A8143
:10068000D701508347FD252F00C000C0208300C044
:1006900000C000C000C000C060830000262F3A9553
:1006A00041F0441F000000C000C000C000C000C0F6
:1006B000E8CF38E04D9100C0608300C0019709F792
:1006C000D8015396FC93EE93529749873B832C8332
:1006D0009A83898378940E949104F80166877787CA
:1006E000808B918B29960FB6F894DEBF0FBECDBFDD
:1006F000DF91CF911F910F91FF90EF90DF90CF90FE
:1007000008951F93CF93DF93EC01162F89818823DF
:1007100031F08E8187FD03C060E00E9440051E839A
:100720008981882341F061E0812F0E94400560E0CB
:10073000812F0E947C05812F90E0FC01E057FF4F44
:10074000E491F0E0EE0FFF1FEC55FF4F259134913F
:100750003B8B2A8BFC01E458FF4FE491EC8BDF913B
:10076000CF911F910895EF92FF920F931F93CF9314
:10077000DF931F92CDB7DEB77C018B01FC011182A4
:1007800017821186108616861786108A118AB9017B
:1007900049830E947F02B801C7010E944502498136
:1007A000642FC7010F90DF91CF911F910F91FF90A0
:1007B000EF900C9481038F929F92AF92BF92CF9251
:1007C000DF92EF92FF920F931F93CF93DF93FC0181
:1007D000828193816817790708F04CC04A01AA24E6
:1007E000BB24B82DC32ED42EE52EFF24AC2D922F82
:1007F0008781882361F0889E40011124B92DC89E0D
:1008000060011124AD2D289FE00111249D2FD58476
:10081000C285E084F184DC1208C09B01220F331FE3
:10082000620F731F6E0D7F1D16C0660F771F660F58
:10083000771F6E0D7F1D052F112722273327EB0110
:10084000CD0DD11D882329F0089F90011124232F5D
:1008500001C0202F28838285EB01C80FD11DB883EA
:100860008385EB01C80FD11DA8838485FB01E80FA8
:10087000F11D9083DF91CF911F910F91FF90EF9029
:10088000DF90CF90BF90AF909F908F9008951F9270
:100890000F920FB60F9211242F933F938F939F9334
:1008A000AF93BF9380919C0190919D01A0919E0177
:1008B000B0919F0130919B0123E0230F2D3720F44D
:1008C0000196A11DB11D05C026E8230F0296A11DAA
:1008D000B11D20939B0180939C0190939D01A09357
:1008E0009E01B0939F018091A0019091A101A091E0
:1008F000A201B091A3010196A11DB11D8093A00199
:100900009093A101A093A201B093A301BF91AF91D5
:100910009F918F913F912F910F900FBE0F901F903D
:1009200018953FB7F8948091A0019091A101A091F2
:10093000A201B091A30126B5A89B05C02F3F19F0D5
:100940000196A11DB11D3FBFBA2FA92F982F88274F
:10095000820F911DA11DB11DBC01CD0142E0660FAA
:10096000771F881F991F4A95D1F70895CF92DF927C
:10097000EF92FF92CF93DF936B017C010E94910471
:10098000EB01C114D104E104F10479F00E94910457
:100990006C1B7D0B683E7340A0F381E0C81AD10840
:1009A000E108F108C851DC4FECCFDF91CF91FF9007
:1009B000EF90DF90CF900895789484B5826084BDE5
:1009C00084B5816084BD85B5826085BD85B5816053
:1009D00085BDEEE6F0E0808181608083E1E8F0E0B3
:1009E0001082808182608083808181608083E0E8E2
:1009F000F0E0808181608083E1EBF0E080818460C1
:100A00008083E0EBF0E0808181608083EAE7F0E0C2
:100A10008081846080838081826080838081816026
:100A200080838081806880831092C1000895833024
:100A300081F028F4813099F08230A1F00895863059
:100A4000A9F08730B9F08430D1F4809180008F7D97
:100A500003C0809180008F7780938000089584B5D3
:100A60008F7702C084B58F7D84BD08958091B000DA
:100A70008F7703C08091B0008F7D8093B000089580
:100A8000CF93DF9390E0FC01E458FF4F2491FC01E9
:100A9000E057FF4F8491882361F190E0880F991F00
:100AA000FC01E255FF4FC591D491FC01EC55FF4F7D
:100AB000A591B491611109C09FB7F89488812095E0
:100AC00082238883EC912E230BC0623061F49FB7A0
:100AD000F8943881822F809583238883EC912E2B84
:100AE0002C939FBF06C08FB7F894E8812E2B2883E4
:100AF0008FBFDF91CF9108951F93CF93DF93282F5E
:100B000030E0F901E859FF4F8491F901E458FF4FB3
:100B1000D491F901E057FF4FC491CC23C9F0162FAF
:100B200081110E941705EC2FF0E0EE0FFF1FEC552E
:100B3000FF4FA591B4918FB7F894111105C09C9106
:100B4000ED2FE095E92302C0EC91ED2BEC938FBFE4
:100B5000DF91CF911F910895CF93DF93823091055C
:100B600010F482E090E0E0915002F091510220E018
:100B700030E0C0E0D0E0309711F14081518148175A
:100B80005907C0F04817590761F482819381209773
:100B900019F09B838A832BC090935102809350025B
:100BA00026C02115310519F04217530718F49A0190
:100BB000BE01DF01EF010280F381E02DDCCF2115C2
:100BC000310509F1281B390B2430310590F41296B8
:100BD0008D919C9113976115710521F0FB01938311
:100BE000828304C09093510280935002FD0132969B
:100BF00044C0FD01E20FF31F81939193225031090C
:100C00002D933C933AC020914E0230914F02232BFA
:100C100041F4209106013091070130934F02209357
:100C20004E0220910401309105012115310541F456
:100C30002DB73EB74091080150910901241B350B97
:100C4000E0914E02F0914F02E217F307A0F42E1B41
:100C50003F0B2817390778F0AC014E5F5F4F241720
:100C6000350748F04E0F5F1F50934F0240934E02DE
:100C70008193919302C0E0E0F0E0CF01DF91CF914A
:100C800008950F931F93CF93DF93009709F48CC0BF
:100C9000FC0132971382128200915002109151028E
:100CA0000115110581F420813181820F931F20915C
:100CB0004E0230914F022817390779F5F0934F0211
:100CC000E0934E0271C0D80140E050E0AE17BF077C
:100CD00050F412962D913C911397AD0121153105D9
:100CE00009F1D901F3CF9D01DA01338322836081B9
:100CF0007181860F971F8217930769F4EC01288191
:100D00003981260F371F2E5F3F4F318320838A8121
:100D10009B8193838283452B29F4F0935102E093C6
:100D2000500242C01396FC93EE931297ED01499145
:100D300059919E01240F351FE217F30771F480814A
:100D40009181840F951F029611969C938E938281B8
:100D5000938113969C938E931297E0E0F0E0D80174
:100D600012968D919C911397009719F0F8018C01C0
:100D7000F6CF8D919C9198012E5F3F4F820F931F6C
:100D800020914E0230914F022817390769F43097AD
:100D900029F4109251021092500202C01382128262
:100DA00010934F0200934E02DF91CF911F910F914C
:100DB00008950E94DC040E94F301CAEBD7E00E9470
:100DC0005F012097E1F30E94BA07F9CFFC01248567
:100DD0003585F901E05CFF4F808191813296208159
:100DE0003181821B930B8F7399270895DC011C9628
:100DF000ED91FC911D97DF01A05CBF4F2D913C91BF
:100E0000119712968D919C9111972817390739F0F7
:100E10008D919C91E80FF91F808190E008958FEFEC
:100E20009FEF0895FC01A485B585FD01E05CFF4FAF
:100E3000208131813296808191812817390779F09C
:100E400080819181A80FB91F8C91208131812F5F02
:100E50003F4F2F7333273183208390E008958FEF26
:100E60009FEF0895FC0181A1882329F0A489B58909
:100E70008C9186FFFBCF11A208950F931F93CF9300
:100E8000DF93FC01A685B7858D01005C1F4FE8014B
:100E90008881998101968F739927AD014E5B5F4FD1
:100EA000EA012881398182179307D1F3E80128816B
:100EB0003981A20FB31F6C93A685B785A05CBF4F85
:100EC00011969C938E93A689B7892C9181E090E02E
:100ED000078C02C0880F991F0A94E2F7822B8C932B
:100EE00081E081A30488F589E02D8081806480837E
:100EF00081E090E0DF91CF911F910F9108950895C7
:100F00001F920F920FB60F9211242F934F935F935E
:100F10008F939F93EF93FF938091C00082FD1CC03D
:100F20002091C60080914A0290914B0201968F73E6
:100F3000992740914C0250914D028417950771F00A
:100F4000E0914A02F0914B02E65FFD4F20839093BF
:100F50004B0280934A0202C08091C600FF91EF913C
:100F60009F918F915F914F912F910F900FBE0F9096
:100F70001F90189584EA91E00E94E606892B11F0F3
:100F80000C947F0708951F920F920FB60F921124B1
:100F90002F933F938F939F93EF93FF93209106029C
:100FA00030910702809108029091090228173907B1
:100FB00031F48091C1008F7D8093C10014C0E09115
:100FC0000802F0910902EA53FE4F20818091080245
:100FD0009091090201968F7399279093090280934B
:100FE00008022093C600FF91EF919F918F913F914E
:100FF0002F910F900FBE0F901F901895CF92DF92F8
:10100000EF92FF920F931F93CF93DF93EC016A014E
:101010007B014115514E6105710509F1EC89FD898E
:1010200081E090E008A002C0880F991F0A94E2F7BF
:10103000808360E079E08DE390E0A70196010E9453
:10104000E90889019A0101501109210931093695F0
:10105000279517950795980101151041A8F0EC897F
:10106000FD89108260E874E88EE190E0A7019601A6
:101070000E94E908DA01C9010197A109B109B695F1
:10108000A795979587959C01E889F9893083EA8926
:10109000FB89208319A2EE89FF89408181E090E0DD
:1010A0009C010C8C02C0220F331F0A94E2F7242B00
:1010B0002083EE89FF8940819C010D8C02C0220FA4
:1010C000331F0A94E2F7242B2083EE89FF894081A5
:1010D0009C010E8C02C0220F331F0A94E2F7242BCE
:1010E0002083EE89FF8920810F8C02C0880F991F11
:1010F0000A94E2F7809582238083DF91CF911F913C
:101100000F91FF90EF90DF90CF900895E4EAF1E027
:101110001382128288EE93E0A0E0B0E0848395838E
:10112000A683B78388E791E0918380838AE092E089
:101130009587848786EC91E09787868785EC90E099
:10114000918B808B84EC90E0938B828B80EC90E091
:10115000958B848B81EC90E0978B868B82EC90E072
:10116000918F808F86EC90E0938F828F84E0848FC4
:1011700083E0858F87E0868F85E0878F81E080A37D
:101180000895CF92DF92EF92FF920F931F93CF9328
:10119000DF936C01EB017B01E40EF51E00E010E033
:1011A000CE15DF0561F06991D601ED91FC910190BA
:1011B000F081E02DC6010995080F191FF1CFC80174
:1011C000DF91CF911F910F91FF90EF90DF90CF9023
:1011D0000895A1E21A2EAA1BBB1BFD010DC0AA1F78
:1011E000BB1FEE1FFF1FA217B307E407F50720F090
:1011F000A21BB30BE40BF50B661F771F881F991F0B
:101200001A9469F760957095809590959B01AC0153
:10121000BD01CF010895EE0FFF1F0590F491E02D61
:101220000994DC0101C06D9341505040E0F70895EE
:1012300010E0CEE5D0E004C0FE010E940B0921962B
:0A124000CF35D107C9F7F894FFCFAE
:10124A003200070000005202800007000700303118
:10125A003130313130313131313131313131313176
:10126A003131313131313131313130313131313165
:10127A003030303131313030303030313030300789
:10128A0000070030313130313130313030313030D7
:10129A00313130303030303131303030303031303F
:1012AA003130303031303030313031303030303030
:1012BA0031303030000000003D07C108E606120751
:0412CA00F6063207EB
:00000001FF
