:100000000C949A000C94C2000C94C2000C94C20090
:100010000C94C2000C94C2000C94C2000C94C20058
:100020000C94C2000C94C2000C94C2000C94C20048
:100030000C94C2000C94C2000C94C2000C94C20038
:100040000C9464050C94C2000C949D080C94E00878
:100050000C94C2000C94C2000C94C2000C94C20018
:100060000C94C2000C94C200A701170217021702D9
:1000700017021702170217021702170217021702B8
:1000800017021702170217021702170217021702A8
:100090001702170217021702170217021702170298
:1000A00017021702170217021702AB01AF01B301C3
:1000B000B701BB01BF01C301C701CB01CF01D30110
:1000C000D701DB01DF01E301E701EB01EF01F30100
:1000D000F701FB01FF01030207020B020F02000000
:1000E00000070002010000030406000000000000F9
:1000F00000000102040810204080010204081020C2
:10010000010204081020040404040404040402028C
:1001100002020202030303030303000000002500A0
:1001200028002B0000000000240027002A002F03D5
:10013000A309380311241FBECFEFD8E0DEBFCDBF27
:1001400015E0A0E0B1E0E4EDF4E102C005900D920D
:10015000A034B107D9F726E0A0E4B5E001C01D92B4
:10016000A231B207E1F710E0C9E9D0E004C021975D
:10017000FE010E94500AC739D107C9F70E94F6074D
:100180000C945D0A0C9400009A01AB01BC0186E45A
:1001900095E00E94F80486E495E00C94D30320E0F7
:1001A00030E0A901BC0186E495E00E94F80486E4F1
:1001B00095E00C94D30326E030E0A901481B590BCD
:1001C000E7E0E49FC001E59F900D112480FD03C08E
:1001D000860F971F04C0261B370B820F931F0196B3
:1001E0000895AF92BF92CF92DF92EF92FF920F935A
:1001F0001F93CF93DF93CDB7DEB74CA95DA90D85D3
:100200001E85EF84F888BE01635F7F4F20E030E0F9
:100210002017310724F5D901AA0FBB1F80E090E019
:100220008E159F05BCF4E0914405F0914505EA0F59
:10023000FB1F0190F081E02DE80FF91F5F01A40E74
:10024000B51E6B01C80ED91EF601D480F501D0820F
:100250000196E6CF2F5F3F4F6B5F7F4FD9CFDF9186
:10026000CF911F910F91FF90EF90DF90CF90BF90B3
:10027000AF9008958F929F92AF92BF92CF92DF92EC
:10028000EF92FF920F931F93CF93DF936C0100E0E7
:1002900010E04C0126E0820E911C5801AA0CBB1CF8
:1002A000E601E12CF12C8C169D0684F18091080169
:1002B00090910901C817D9072CF09E01281B390B12
:1002C000C90101C0CE01E0914405F0914505EA0D58
:1002D000FB1D20813181F901E80FF91F8081B701F1
:1002E000813351F4C8010E94DB0040E058E860E02F
:1002F00070E00E94C40005C0C8010E94DB000E949B
:10030000CF0021963FEFE31AF30ACDCF0F5F1F4FC7
:100310000730110511F6DF91CF911F910F91FF90DA
:10032000EF90DF90CF90BF90AF909F908F90089507
:10033000462F660F550B660B770BFA01B097EB3320
:10034000F10508F074C0EC5CFF4F0C94500A27E2F2
:10035000E2E1F1E067C027E2E8E0F5E063C027E210
:10036000E1EEF4E05FC027E2EAEBF4E05BC027E2F5
:10037000E3E9F4E057C027E2ECE6F4E053C027E2FB
:10038000E5E4F4E04FC027E2EEE1F4E04BC027E201
:10039000E7EFF3E047C027E2E0EDF3E043C027E2F8
:1003A000E9EAF3E03FC027E2E2E8F3E03BC027E2FE
:1003B000EBE5F3E037C027E2E4E3F3E033C027E204
:1003C000EDE0F3E02FC027E2E6EEF2E02BC027E2FB
:1003D000EFEBF2E027C027E2E8E9F2E023C027E2F2
:1003E000E1E7F2E01FC027E2EAE4F2E01BC027E207
:1003F000E3E2F2E017C027E2ECEFF1E013C027E2FE
:10040000E5EDF1E00FC027E2EEEAF1E00BC027E2F4
:10041000E7E8F1E007C027E2E0E6F1E003C027E209
:10042000E9E3F1E0DC0101900D922A95E1F70895EE
:100430001F93CF93DF93CDB7DEB7A8970FB6F8948D
:10044000DEBF0FBECDBF162F682FCE01019678A755
:100450000E94980178A57F931F938DB79EB78797C9
:100460000FB6F8949EBF0FBE8DBFADB7BEB7119645
:1004700087E2FE01319601900D928A95E1F70E9484
:10048000F1000FB6F894DEBF0FBECDBFA8960FB631
:10049000F894DEBF0FBECDBFDF91CF911F910895BD
:1004A000CF93DF93809142059091430560910801BD
:1004B000709109010E941A0A9093410580934005AA
:1004C0000E943A0162E370E080E090E00E94D30570
:1004D000209142053091430580914005909141055E
:1004E0001216130614F4009711F0079789F58091FE
:1004F0000001909101010196909301018093000108
:1005000080FD03C0C0E0D0E002C0C6E0D0E0209192
:10051000060130910701B901615071090E941A0A60
:10052000FC01EE5FFE4FBE0180810E941802209107
:10053000000130910101809106019091070182171D
:10054000930734F481E090E09093010180930001DF
:1005500080914205909143050196909343058093C5
:10056000420520910801309109012817390734F418
:1005700081E090E09093430580934205DF91CF9115
:1005800008950C9450029F92AF92BF92CF92DF9247
:10059000EF92FF920F931F93CF93DF937C016B0138
:1005A000880F991F0E94C9065C01C82FDB2D00E04F
:1005B00010E030E3932E0E151F05B4F4C6010E941F
:1005C000C9069983888320E030E02C153D0544F46A
:1005D000E881F981E20FF31F90822F5F3F4FF5CF43
:1005E0000F5F1F4F2296E7CFC501DF91CF911F917B
:1005F0000F91FF90EF90DF90CF90BF90AF909F90C2
:100600000895CF93DF9340E855E260E070E084E620
:1006100095E00E941B0986E495E00E94500386E461
:1006200095E00E94D30360910801709109018091C7
:100630000A0190910B010E94C3029093450580939B
:100640004405C2E0D1E060E070E088810E941802B9
:1006500066E070E08981DF91CF910C94180222E569
:1006600030E044E06CE370E086E495E00C94D00464
:1006700086E495E00C943C03CF93DF93EC018885EE
:100680009985009711F00E945E078E8187FD05C055
:1006900060E0DF91CF910C945D06DF91CF910895DA
:1006A000CF93DF93EC018E8187FD07C061E00E944C
:1006B0005D0660E08E810E94990681E08983DF916A
:1006C000CF910895EF92FF920F931F93CF93DF93F3
:1006D000EC017B0188859985009711F00E945E07E7
:1006E0009D858A85981719F084E090E002C083E028
:1006F00090E08E9D80018F9D100D9E9D100D112408
:100700001D830C83C8010E94C906998788870097BA
:1007100041F0A80160E070E00E94560AFB82EA8284
:1007200004C01D821C821B821A82DF91CF911F910F
:100730000F91FF90EF900895FC0131E0958582853F
:10074000981330E0CB0126E0969587952A95E1F73E
:10075000282F23702587CB0144E0969587954A95ED
:10076000E1F783708287AB0156954795569547957B
:1007700043704387962F9370948791E06F3F710584
:1007800011F008F090E0908340855185452B51F0A1
:1007900091E0281390E0931729F062817381CF01D3
:1007A0000C9462030895CF92DF92EF92FF920F9321
:1007B0001F93CF93DF93CDB7DEB729970FB6F89489
:1007C000DEBF0FBECDBF8C01DC0118968D919C91D0
:1007D0001997892B09F4A3C00E94AE05F801C684BD
:1007E000D784E088F188DC01CB018C199D09AE0922
:1007F000BF098C329140A105B10570F3F894D8017E
:1008000014968D919C9115979A8389831896ED91F2
:10081000FC9119977F01BFEFEB1AFB0A8081898752
:10082000F80190810288F389E02DD80154968C91CB
:10083000992309F430C09081982B988790818095F6
:1008400089238F838F818E8388E08D8358856F8184
:1008500049853D812E8189819A81D701508347FD49
:10086000252F3A952083262F39F0441F00C0000021
:100870006083000000C0F2CF38E04D91608300003B
:10088000019761F7D8015396FC93EE9352974987ED
:100890003D832E833AC09081982B988790818095D4
:1008A00089238F838F818C8388E08B8358856F8128
:1008B00049853B812C8189819A81D701508347FDED
:1008C000252F00C000C0208300C000C000C000C0B1
:1008D00000C060830000262F3A9541F0441F0000BD
:1008E00000C000C000C000C000C0E8CF38E04D919B
:1008F00000C0608300C0019709F7D8015396FC93AC
:10090000EE93529749873B832C839A83898378940B
:100910000E94AE05F80166877787808B918B2996B8
:100920000FB6F894DEBF0FBECDBFDF91CF911F9100
:100930000F91FF90EF90DF90CF9008951F93CF938A
:10094000DF93EC01162F8981882331F08E8187FD9A
:1009500003C060E00E945D061E838981882341F008
:1009600061E0812F0E945D0660E0812F0E94990660
:10097000812F90E0FC01EA5FFE4FE491F0E0EE0F82
:10098000FF1FE65EFE4F259134913B8B2A8BFC01C5
:10099000EE50FF4FE491EC8BDF91CF911F910895C2
:1009A000EF92FF920F931F93CF93DF931F92CDB7D8
:1009B000DEB77C018B01FC01118217821186108643
:1009C00016861786108A118AB90149830E949C03F2
:1009D000B801C7010E9462034981642FC7010F90CB
:1009E000DF91CF911F910F91FF90EF900C949E0497
:1009F0008F929F92AF92BF92CF92DF92EF92FF922F
:100A00000F931F93CF93DF93FC018281938168172B
:100A1000790708F04CC04A01AA24BB24B82DC32E84
:100A2000D42EE52EFF24AC2D922F8781882361F0F0
:100A3000889E40011124B92DC89E60011124AD2D5E
:100A4000289FE00111249D2FD584C285E084F18484
:100A5000DC1208C09B01220F331F620F731F6E0D43
:100A60007F1D16C0660F771F660F771F6E0D7F1DE7
:100A7000052F112722273327EB01CD0DD11D882308
:100A800029F0089F90011124232F01C0202F2883D3
:100A90008285EB01C80FD11DB8838385EB01C80F98
:100AA000D11DA8838485FB01E80FF11D9083DF91A0
:100AB000CF911F910F91FF90EF90DF90CF90BF905B
:100AC000AF909F908F9008951F920F920FB60F9244
:100AD00011242F933F938F939F93AF93BF93809154
:100AE0005C0590915D05A0915E05B0915F05309128
:100AF0005B0523E0230F2D3720F40196A11DB11DC6
:100B000005C026E8230F0296A11DB11D20935B05A9
:100B100080935C0590935D05A0935E05B0935F059F
:100B20008091600590916105A0916205B091630587
:100B30000196A11DB11D8093600590936105A0935E
:100B40006205B0936305BF91AF919F918F913F91E3
:100B50002F910F900FBE0F901F9018953FB7F894EC
:100B60008091600590916105A0916205B091630547
:100B700026B5A89B05C02F3F19F00196A11DB11DF8
:100B80003FBFBA2FA92F982F8827820F911DA11D33
:100B9000B11DBC01CD0142E0660F771F881F991F70
:100BA0004A95D1F70895CF92DF92EF92FF92CF93BB
:100BB000DF936B017C010E94AE05EB01C114D104EF
:100BC000E104F10479F00E94AE056C1B7D0B683ED8
:100BD0007340A0F381E0C81AD108E108F108C851B8
:100BE000DC4FECCFDF91CF91FF90EF90DF90CF9073
:100BF0000895789484B5826084BD84B5816084BD95
:100C000085B5826085BD85B5816085BDEEE6F0E085
:100C1000808181608083E1E8F0E0108280818260E1
:100C20008083808181608083E0E8F0E08081816062
:100C30008083E1EBF0E0808184608083E0EBF0E092
:100C4000808181608083EAE7F0E080818460808336
:100C500080818260808380818160808380818068E0
:100C600080831092C1000895833081F028F4813090
:100C700099F08230A1F008958630A9F08730B9F05C
:100C80008430D1F4809180008F7D03C080918000FA
:100C90008F7780938000089584B58F7702C084B5E4
:100CA0008F7D84BD08958091B0008F7703C08091BF
:100CB000B0008F7D8093B0000895CF93DF9390E0D4
:100CC000FC01EE50FF4F2491FC01EA5FFE4F84913E
:100CD000882361F190E0880F991FFC01EC5DFE4FC5
:100CE000C591D491FC01E65EFE4FA591B4916111CE
:100CF00009C09FB7F8948881209582238883EC915E
:100D00002E230BC0623061F49FB7F8943881822F94
:100D1000809583238883EC912E2B2C939FBF06C054
:100D20008FB7F894E8812E2B28838FBFDF91CF9166
:100D300008951F93CF93DF93282F30E0F901E252FB
:100D4000FF4F8491F901EE50FF4FD491F901EA5F12
:100D5000FE4FC491CC23C9F0162F81110E94340696
:100D6000EC2FF0E0EE0FFF1FE65EFE4FA591B49171
:100D70008FB7F894111105C09C91ED2FE095E923F0
:100D800002C0EC91ED2BEC938FBFDF91CF911F91BF
:100D90000895CF93DF938230910510F482E090E0C4
:100DA000E0911006F091110620E030E0C0E0D0E0C4
:100DB000309711F14081518148175907C0F0481709
:100DC000590761F482819381209719F09B838A836C
:100DD0002BC0909311068093100626C02115310573
:100DE00019F04217530718F49A01BE01DF01EF0111
:100DF0000280F381E02DDCCF2115310509F1281B9C
:100E0000390B2430310590F412968D919C911397F3
:100E10006115710521F0FB019383828304C09093D7
:100E2000110680931006FD01329644C0FD01E20FC9
:100E3000F31F81939193225031092D933C933AC033
:100E400020910E0630910F06232B41F420910E01C4
:100E500030910F0130930F0620930E0620910C0164
:100E600030910D012115310541F42DB73EB7409168
:100E7000100150911101241B350BE0910E06F091E9
:100E80000F06E217F307A0F42E1B3F0B28173907B4
:100E900078F0AC014E5F5F4F2417350748F04E0FD6
:100EA0005F1F50930F0640930E068193919302C0EB
:100EB000E0E0F0E0CF01DF91CF9108950F931F9311
:100EC000CF93DF93009709F48CC0FC013297138213
:100ED000128200911006109111060115110581F47E
:100EE00020813181820F931F20910E0630910F06D1
:100EF0002817390779F5F0930F06E0930E0671C0B5
:100F0000D80140E050E0AE17BF0750F412962D9183
:100F10003C911397AD012115310509F1D901F3CFAA
:100F20009D01DA013383228360817181860F971FCF
:100F30008217930769F4EC0128813981260F371F46
:100F40002E5F3F4F318320838A819B8193838283ED
:100F5000452B29F4F0931106E093100642C0139636
:100F6000FC93EE931297ED01499159919E01240F44
:100F7000351FE217F30771F480819181840F951F6B
:100F8000029611969C938E938281938113969C93E3
:100F90008E931297E0E0F0E0D80112968D919C912B
:100FA0001397009719F0F8018C01F6CF8D919C9161
:100FB00098012E5F3F4F820F931F20910E063091B4
:100FC0000F062817390769F4309729F41092110693
:100FD0001092100602C01382128210930F06009323
:100FE0000E06DF91CF911F910F9108950E94F90590
:100FF0000E940103C7EDD8E00E94C1022097E1F3EF
:101000000E94D708F9CFFC0124853585F901E05C01
:10101000FF4F80819181329620813181821B930B19
:101020008F7399270895DC011C96ED91FC911D9713
:10103000DF01A05CBF4F2D913C91119712968D91CD
:101040009C9111972817390739F08D919C91E80FE1
:10105000F91F808190E008958FEF9FEF0895FC01C4
:10106000A485B585FD01E05CFF4F2081318132967A
:10107000808191812817390779F080819181A80FAB
:10108000B91F8C91208131812F5F3F4F2F73332700
:101090003183208390E008958FEF9FEF0895FC0146
:1010A00081A1882329F0A489B5898C9186FFFBCF83
:1010B00011A208950F931F93CF93DF93FC01A68590
:1010C000B7858D01005C1F4FE801888199810196E9
:1010D0008F739927AD014E5B5F4FEA0128813981FB
:1010E00082179307D1F3E80128813981A20FB31F3A
:1010F0006C93A685B785A05CBF4F11969C938E9389
:10110000A689B7892C9181E090E0078C02C0880FF6
:10111000991F0A94E2F7822B8C9381E081A30488C3
:10112000F589E02D80818064808381E090E0DF910B
:10113000CF911F910F91089508951F920F920FB6AE
:101140000F9211242F934F935F938F939F93EF935D
:10115000FF938091C00082FD1CC02091C600809149
:101160000A0690910B0601968F73992740910C0601
:1011700050910D068417950771F0E0910A06F091E1
:101180000B06E653FA4F208390930B0680930A06D2
:1011900002C08091C600FF91EF919F918F915F9166
:1011A0004F912F910F900FBE0F901F90189584E6CE
:1011B00095E00E940308892B11F00C949C08089577
:1011C0001F920F920FB60F9211242F933F938F937C
:1011D0009F93EF93FF932091C6053091C7058091AF
:1011E000C8059091C9052817390731F48091C100CD
:1011F0008F7D8093C10014C0E091C805F091C905AE
:10120000EA57FA4F20818091C8059091C90501964F
:101210008F7399279093C9058093C8052093C600C2
:10122000FF91EF919F918F913F912F910F900FBE62
:101230000F901F901895CF92DF92EF92FF920F932D
:101240001F93CF93DF93EC016A017B014115514E4F
:101250006105710509F1EC89FD8981E090E008A044
:1012600002C0880F991F0A94E2F7808360E079E05A
:101270008DE390E0A70196010E942E0A89019A0150
:1012800001501109210931093695279517950795C0
:10129000980101151041A8F0EC89FD89108260E8E1
:1012A00074E88EE190E0A70196010E942E0ADA010F
:1012B000C9010197A109B109B695A7959795879599
:1012C0009C01E889F9893083EA89FB89208319A286
:1012D000EE89FF89408181E090E09C010C8C02C086
:1012E000220F331F0A94E2F7242B2083EE89FF8913
:1012F00040819C010D8C02C0220F331F0A94E2F73B
:10130000242B2083EE89FF8940819C010E8C02C032
:10131000220F331F0A94E2F7242B2083EE89FF89E2
:1013200020810F8C02C0880F991F0A94E2F78095E4
:1013300082238083DF91CF911F910F91FF90EF90D7
:10134000DF90CF900895E4E6F5E01382128288EEF4
:1013500093E0A0E0B0E084839583A683B78383E322
:1013600095E0918380838AEC95E09587848786E871
:1013700095E09787868785EC90E0918B808B84EC55
:1013800090E0938B828B80EC90E0958B848B81EC4A
:1013900090E0978B868B82EC90E0918F808F86EC2B
:1013A00090E0938F828F84E0848F83E0858F87E045
:1013B000868F85E0878F81E080A30895CF92DF92AA
:1013C000EF92FF920F931F93CF93DF936C01EB018A
:1013D0007B01E40EF51E00E010E0CE15DF0561F0A4
:1013E0006991D601ED91FC910190F081E02DC6014B
:1013F0000995080F191FF1CFC801DF91CF911F91F7
:101400000F91FF90EF90DF90CF900895AA1BBB1B28
:1014100051E107C0AA1FBB1FA617B70710F0A61BF4
:10142000B70B881F991F5A95A9F780959095BC0115
:10143000CD01089597FB072E16F4009407D077FD91
:1014400009D00E94060A07FC05D03EF490958195CC
:101450009F4F0895709561957F4F0895A1E21A2ED0
:10146000AA1BBB1BFD010DC0AA1FBB1FEE1FFF1F48
:10147000A217B307E407F50720F0A21BB30BE40B98
:10148000F50B661F771F881F991F1A9469F76095DF
:101490007095809590959B01AC01BD01CF01089599
:1014A000EE0FFF1F0590F491E02D0994DC0101C0BF
:1014B0006D9341505040E0F7089510E0C9E9D0E045
:1014C00004C0FE010E94500A2196CA39D107C9F70B
:0414D000F894FFCFBE
:1014D40001004142430004000C0007000000120612
:1014E400800007000500303030303030303030308C
:1014F40030303030303030303030303030303030E8
:101504003030303030303030300700050031313188
:1015140031313030303031303030313030303130C2
:1015240030303130303031303030303131313131B0
:101534000700050030303030303130303031313058
:101544003030313031303130303031303030303192
:10155400303030303130300700050030303030303A
:101564003030303030313030303130313031303073
:1015740030313030303130313031303030310700BB
:1015840005003030303030303030303031303030B1
:10159400313130313031313031303130313031303E
:1015A40030303130300700050030303030303030EA
:1015B4003030303130303031313030303131303022
:1015C40030313031303130303031303007000500C7
:1015D4003130303031313030303131303030313100
:1015E40030303031313030303131303030313031F1
:1015F4003131300700050031313131313030313093
:1016040030303031303030303130303030313030D3
:101614003030313030303031303007000500303177
:1016240031313031303030313130303030303131AF
:10163400313030303030313130303031303131319F
:101644003007000500303131313031303030313144
:10165400303030313130303031313131313031307E
:101664003030313130303031070005003031313124
:101674003031303030313130303031313030303160
:101684003130303031303131313030303030310779
:1016940000050031313131303130303031313030CA
:1016A400303131313131303130303030313030302F
:1016B40030313030303007000500303131313031D5
:1016C4003030303131303030313130303031313010
:1016D4003030313130303031303131313007000584
:1016E4000030303030303030303030313130303123
:1016F40031303130313130303131313030303131DD
:101704003030303107000500303030303031303087
:1017140030313131303031313031303131303031BC
:101724003131303030313130303031070005003163
:1017340030303030313030303031303030303130A2
:101744003030303130303030313030303031313190
:101754003130070005003130303130313030313034
:10176400313031303031313030303130313030316E
:101774003030313031303031300700050030303115
:101784003131303030313030303031303030303150
:101794003030303031303130303130303131303040
:1017A40007000500313131303030313030303031E4
:1017B4003030303031303030303130303030313022
:1017C40030303131313030070005003130303031C4
:1017D40031303030313130303031313131313131FB
:1017E4003030303131303030313130303031070049
:1017F4000500313131313131303030303130303039
:1018040030313131313131303030313130303031CB
:10181400313131313107000500313131313131306D
:1018240030303031303030303131313030313030AF
:101834003030313030303031303030300700050056
:10184400313131313031303030303130303030318D
:10185400313130303130303030313030303031317E
:101864003131300700050031313131303130303021
:10187400313130303031313030303131303030315D
:101884003130303031313131313007000500303101
:10189400313130313030303131303030303130303E
:1018A400303031303030303130303031303131312E
:1018B40030070005003131313130313030303131D1
:1018C400303030313131313130313030303131300C
:1018D40030303131313131300700050030313131B0
:1018E40030313030303131303030313130303031EE
:1018F400313131313131303030313130303031000B
:101904000000005A08DE0903082F0813084F0800D6
:00000001FF
