:100000000C9466000C948E000C948E000C948E0060
:100010000C948E000C948E000C948E000C948E0028
:100020000C948E000C948E000C948E000C948E0018
:100030000C948E000C948E000C948E000C948E0008
:100040000C94F6160C948E000C94091C0C944C1C09
:100050000C948E000C948E000C948E000C948E00E8
:100060000C948E000C948E0000000007000201002A
:100070000003040600000000000000000102040864
:100080001020408001020408102001020408102002
:10009000040404040404040402020202020203032E
:1000A0000303030300000000250028002B000000CC
:1000B0000000240027002A00AF054F0A3A0CD20D99
:1000C0002E0E6D12D516641B111DE00511241FBEE6
:1000D000CFEFD8E0DEBFCDBF12E0A0E0B1E0E0EEB0
:1000E000FBE302C005900D92A033B107D9F724E0DD
:1000F000A0E3B2E001C01D92AA31B207E1F710E01F
:10010000C5E6D0E004C02197FE010E94CD1DCC358C
:10011000D107C9F70E9494190C94E31D0C940000B8
:10012000FC01268137812F5F3F4F2E7F3783268347
:10013000620F731F848195818617970738F082813B
:10014000938177836683820F931F089580E090E008
:100150000895DB01109749F0ED91FC911197019002
:10016000F081E02DBC01CD01099480E090E008957C
:1001700080910903811112C089E093E00E94F41A72
:10018000892B61F0109235021092340210923702DE
:100190001092360289E093E00E94FD1A84E392E017
:1001A000089580910103811112C081E093E00E94C3
:1001B000F41A892B61F010923102109230021092E1
:1001C00033021092320281E093E00E94FD1A80E334
:1001D00092E00895CF93DF93EC016EE071E00E940E
:1001E000051A6EE171E0CE010E94051A6DE371E01F
:1001F000CE010E94051ACE010E94F1196FE471E050
:10020000CE01DF91CF910C94051A9A01AB01BC018C
:100210008CEE92E00E94F6078CEE92E00C94D106F0
:1002200020E030E0A901BC018CEE92E00E94F607CC
:100230008CEE92E00C94D10626E030E0A901481B38
:10024000590BE7E0E49FC001E59F900D112480FD6C
:1002500003C0860F971F04C0261B370B820F931F06
:1002600001960895FC012081203379F521812837FA
:1002700061F5329680E090E02191222329F134E06B
:10028000880F991F3A95E1F7022E000C330BA90154
:10029000405351094A30510518F4842B952BECCF6B
:1002A000A901415451094630510518F42753310929
:1002B00008C0A901415651094630510540F427555F
:1002C0003109822B932BD8CF089580E090E00895D8
:1002D000FC01A081B1818C918D3051F024F48950C2
:1002E0008230B8F505C0803219F08F3219F00895C8
:1002F00011962CC011968C9111978A3219F08F3279
:10030000D1F008951196B183A083A081B181CD0170
:1003100001969183808311968C9111978823C9F05F
:100320008A3299F712968C9112978F3271F7139641
:100330000DC08A3071F2A081B181CD010196918307
:10034000808311968C918111F4CF03C0B183A08377
:10035000C0CF08950F931F93CF93DF931F92CDB714
:10036000DEB78C0169830E946801D801ED91FC9190
:10037000119780816981861305C03196ED93FC93B6
:1003800081E001C080E00F90DF91CF911F910F912C
:1003900008950F931F93CF93DF93EC010C811D8180
:1003A00002960E946801EA81FB819081973219F1DF
:1003B000923209F180ED890F8A3058F0892F8F7DB4
:1003C00081548A3130F09B3221F083ED890F8230E5
:1003D000F0F52A813B812F5F3F4F3B832A83EC81DD
:1003E000FD819F012F5F3F4F3D832C839083EA81E6
:1003F000FB819081DFCF3196FB83EA83EA81FB8129
:100400002081222321F1AF014F5F5F4F5B834A833D
:100410002917E9F02C3591F42181A6E7B1E08C9100
:10042000882339F0821303C011962C9102C01296D2
:10043000F6CF222361F03296FB83EA83EC81FD81C3
:10044000AF014F5F5F4F5D834C832083D7CFEC813B
:10045000FD81CF0101969D838C831082C801DF91BD
:10046000CF911F910F9108950F931F93CF93DF9317
:100470008B01FC01C281D381209759F06A817B8175
:10048000C8010E94DA1D892B21F00990D881C02D66
:10049000F3CFCE01DF91CF911F910F9108950E946C
:1004A0003402FC01892B09F44BC08481958183308F
:1004B00091053CF4813091057CF4009709F447C024
:1004C00038C0853091052CF0059799F566817781C4
:1004D0002BC08681978108950680F781E02D3097A3
:1004E00079F18081843779F18B3229F08D3221F4D2
:1004F000319691E002C0319690E060E070E03AE021
:10050000819120ED280F2A3068F4369FA001379F93
:10051000500D1124682F880F770B60537109640FF9
:10052000751FEECF992391F088279927861B970B8B
:10053000089566817781808591850E944C1D06C053
:1005400080E090E0089581E090E00895CB01089567
:10055000BF92CF92DF92EF92FF920F931F93CF93B0
:10056000DF9300D000D000D0CDB7DEB77C01FC0116
:1005700000811181B80184E090E00E94A900FC0193
:10058000009709F460C011830083138212828C01EA
:100590006701F2E0CF0ED11C6BE5C6010E94AA01F3
:1005A000882309F44CC06DE5C6010E94AA0181119F
:1005B0004EC086E0B82E1A821982BE016F5F7F4F4F
:1005C000C7010E9438038823D1F1F801608171814D
:1005D00088E090E00E94A900DC01892B39F0119697
:1005E0001C921E9213961C921E921297F801228161
:1005F00033812115310551F0F901808191810097F6
:1006000011F09C01F9CFB183A08303C0F801B3833B
:10061000A2831097A1F0FE01319612968B2D0190C6
:100620000D928A95E1F76DE5C6010E94AA0181113C
:100630000EC06CE2C6010E94AA018111BCCF0E94CB
:10064000B8008C0104C00E94B8008C01A1CFC80181
:1006500026960FB6F894DEBF0FBECDBFDF91CF91C7
:100660001F910F91FF90EF90DF90CF90BF90089572
:10067000EF92FF920F931F93CF93DF931F92CDB70B
:10068000DEB7FC019681992309F45AC08B017F01E2
:1006900091509683CF0102960E946801D70112966D
:1006A000ED91FC91139780818B3519F08B3771F0A8
:1006B00021C0C7010E94A802FC0120813181232BA7
:1006C00011F420E038C026E030E00AC0C7010E94E3
:1006D000AA03FC0120813181232B99F327E030E02C
:1006E000D80111963C932E9313969C938E93129758
:1006F00021E021C021E0873219F0823209F020E0A8
:10070000C70129830E94C90129810097D1F22223C0
:1007100041F042E050E0F8015183408393838283AB
:100720000AC021E030E0D80111963C932E93139635
:100730009C938E931297F70186818F5F868301C009
:1007400020E0822F0F90DF91CF911F910F91FF90AA
:10075000EF9008959F92AF92BF92CF92DF92EF9267
:10076000FF920F931F93CF93DF9300D000D000D060
:10077000CDB7DEB76C01FC0100811181B80184E0C6
:1007800090E00E94A900009709F47BC0FC0111834E
:100790000083138212828C017601F2E0EF0EF11CCD
:1007A0006BE7C7010E94AA01882309F466C06DE7C0
:1007B000C7010E94AA01811167C086E0982EC60178
:1007C0000E94C9015C01892B09F457C06AE3C70183
:1007D0000E94AA01882309F450C01A821982BE011E
:1007E0006F5F7F4FC6010E943803882309F445C01C
:1007F000B501C8010E943402DC01892B51F5F801D2
:10080000608171818AE090E00E94A900DC01892B5F
:1008100039F011961C921E9215961C921E921497F6
:10082000F801228133812115310551F0F9018081D0
:100830009181009711F09C01F9CFB183A08303C08F
:10084000F801B383A2831097C1F01396BC92AE92C5
:100850001297FE0131961496892D01900D928A957A
:10086000E1F76DE7C7010E94AA0181110DC06CE29A
:10087000C7010E94AA018111A2CF0E94D1008C0160
:1008800003C00E94D10087CFC80126960FB6F89406
:10089000DEBF0FBECDBFDF91CF911F910F91FF90B3
:1008A000EF90DF90CF90BF90AF909F900895EF9220
:1008B000FF920F931F93CF93DF93CDB7DEB76C9763
:1008C0000FB6F894DEBF0FBECDBF64E772E0CE0175
:1008D0000E960E94FC11CE010E960E948F0888236E
:1008E00009F430C161E871E08CE693E00E94051ADA
:1008F00000E0FF24F394CE010E960E942B0A882379
:1009000009F445C0CE010E960E94B508892B99F3D3
:10091000CE010E960E94C008182F002391F0682F78
:100920008CE693E00E94E019809140029091410290
:10093000FC01EE5BFD4F1083019690934102809382
:1009400040021A3009F0F9C0FF2099F2002309F49F
:10095000F2C0888999899C838B838A899B89AC8919
:10096000BD898D839E83AF83B8878E899F89A88D2B
:10097000B98D89879A87AB87BC8784ED91E09A838C
:1009800089838A8D8D87CE0101960E94EA0061E0FD
:1009900070E080E090E00E947117CE010E960E94F8
:1009A000E9096CE871E08CE693E00E94051A60EAC0
:1009B00071E08CE693E00E94051A62E472E08CE636
:1009C00093E00E94051A82E492E02AE732E03A833B
:1009D00029839C838B839E838D838AE08F83CE01C2
:1009E00001960E94AA038C0110928102109280024B
:1009F00069EA71E00E944F0290933F0280933E02A9
:100A00006DEA71E0C8010E944F0290933D0280930D
:100A10003C026FEA71E0C8010E944F0290933B02D2
:100A200080933A0261EB71E0C8010E9434028C01AC
:100A30000097F1F0FC01E480F580F1E0EF16F1049D
:100A400061F4FC01668177816115710531F087EBF6
:100A500091E00E94DA1D892B59F0F1E0EF1AF108BC
:100A600082E0E816F10420F4F8012681378102C003
:100A700020E030E0309339022093380280913E022A
:100A800090913F0260913A0270913B02E0903C02EB
:100A9000F0903D02019789F4C9016B8F7C8F0E9411
:100AA00032018C016B8D7C8DC7010E941C01A80155
:100AB00060E070E00E94050105C0C7010E941C01B2
:100AC0000E94100160913E0270913F024AE050E0A6
:100AD0008CE693E00E94C91A60913C0270913D023D
:100AE0004AE050E08CE693E00E94C91A60913A0215
:100AF00070913B024AE050E08CE693E00E94C91AF4
:100B000060913802709139028CE693E00E94051AD8
:100B10008091400290914102E2E4F2E09F01225470
:100B200032402817390714F41192F8CF109241027D
:100B30001092400207C001E0DCCE1D3009F4DBCE8C
:100B4000F12CD9CE6C960FB6F894DEBF0FBECDBF98
:100B5000DF91CF911F910F91FF90EF9008950F9328
:100B600000E020E040E060E081E193E00E944D1B66
:100B700022E530E044E06CE370E08CEE92E00E940D
:100B8000CE0701EB22E048EA60EC86EE92E00E949C
:100B90004D1BEAE7F2E082E892E09383828384E6E9
:100BA00090E095838483178216828EEC91E0918386
:100BB000808360E570E084E792E00F910C943A1135
:100BC0008CEE92E00C943A06CF93DF9300D000D0E5
:100BD00000D0CDB7DEB740E855E260E070E08CE6CB
:100BE00093E00E94871C8CE693E00E940F1D8823EF
:100BF000D1F38CEE92E00E944E068CEE92E00E94C1
:100C0000D1068EE192E09A8389838091E8029091E7
:100C1000E902A091EA02B091EB028B839C83AD8341
:100C2000BE83AE014F5F5F4F60E071E083E293E00F
:100C30000E946C0D84E792E00E94F6106CEB71E06C
:100C40008CE693E00E94DE1963E273E0CE01019628
:100C50000E94B00DBE016F5F7F4F8CE693E00E9453
:100C6000171A26960FB6F894DEBF0FBECDBFDF91E0
:100C7000CF910895CF93DF93EC01888599850097F4
:100C800011F00E94FC188E8187FD05C060E0DF91A5
:100C9000CF910C94FB17DF91CF910895CF93DF9301
:100CA000EC018E8187FD07C061E00E94FB1760E0C8
:100CB0008E810E94371881E08983DF91CF9108955A
:100CC000EF92FF920F931F93CF93DF93EC017B0181
:100CD00088859985009711F00E94FC189D858A856A
:100CE000981719F084E090E002C083E090E08E9DB8
:100CF00080018F9D100D9E9D100D11241D830C836E
:100D0000C8010E94671899878887009741F0A80159
:100D100060E070E00E94D31DFB82EA8204C01D8265
:100D20001C821B821A82DF91CF911F910F91FF903D
:100D3000EF900895FC0131E095858285981330E0AD
:100D4000CB0126E0969587952A95E1F7282F237009
:100D50002587CB0144E0969587954A95E1F7837006
:100D60008287AB01569547955695479543704387C3
:100D7000962F9370948791E06F3F710511F008F002
:100D800090E0908340855185452B51F091E02813E8
:100D900090E0931729F062817381CF010C94600673
:100DA0000895CF92DF92EF92FF920F931F93CF930C
:100DB000DF93CDB7DEB729970FB6F894DEBF0FBE2D
:100DC000CDBF8C01DC0118968D919C911997892BD0
:100DD00009F4A3C00E944C17F801C684D784E088A8
:100DE000F188DC01CB018C199D09AE09BF098C3259
:100DF0009140A105B10570F3F894D80114968D9136
:100E00009C9115979A8389831896ED91FC91199777
:100E10007F01BFEFEB1AFB0A80818987F80190817F
:100E20000288F389E02DD80154968C91992309F416
:100E300030C09081982B98879081809589238F83EB
:100E40008F818E8388E08D8358856F8149853D81B0
:100E50002E8189819A81D701508347FD252F3A95AC
:100E60002083262F39F0441F00C00000608300005B
:100E700000C0F2CF38E04D9160830000019761F728
:100E8000D8015396FC93EE93529749873D832E8366
:100E90003AC09081982B98879081809589238F8381
:100EA0008F818C8388E08B8358856F8149853B8156
:100EB0002C8189819A81D701508347FD252F00C05D
:100EC00000C0208300C000C000C000C000C060831C
:100ED0000000262F3A9541F0441F000000C000C0DA
:100EE00000C000C000C0E8CF38E04D9100C0608372
:100EF00000C0019709F7D8015396FC93EE935297DF
:100F000049873B832C839A83898378940E944C176A
:100F1000F80166877787808B918B29960FB6F894B6
:100F2000DEBF0FBECDBFDF91CF911F910F91FF901C
:100F3000EF90DF90CF9008951F93CF93DF93EC0154
:100F4000162F8981882331F08E8187FD03C060E0F0
:100F50000E94FB171E838981882341F061E0812F65
:100F60000E94FB1760E0812F0E943718812F90E0CC
:100F7000FC01E057FF4FE491F0E0EE0FFF1FEC554E
:100F8000FF4F259134913B8B2A8BFC01E458FF4F96
:100F9000E491EC8BDF91CF911F910895EF92FF9236
:100FA0000F931F93CF93DF931F92CDB7DEB77C01D2
:100FB0008B01FC0111821782118610861686178616
:100FC000108A118AB90149830E949A06B801C701A3
:100FD0000E9460064981642FC7010F90DF91CF9175
:100FE0001F910F91FF90EF900C949C078F929F920E
:100FF000AF92BF92CF92DF92EF92FF920F931F9327
:10100000CF93DF93FC01828193816817790708F001
:101010004CC04A01AA24BB24B82DC32ED42EE52EE1
:10102000FF24AC2D922F8781882361F0889E400198
:101030001124B92DC89E60011124AD2D289FE00117
:1010400011249D2FD584C285E084F184DC1208C070
:101050009B01220F331F620F731F6E0D7F1D16C081
:10106000660F771F660F771F6E0D7F1D052F1127E7
:1010700022273327EB01CD0DD11D882329F0089FAE
:1010800090011124232F01C0202F28838285EB019A
:10109000C80FD11DB8838385EB01C80FD11DA8836C
:1010A0008485FB01E80FF11D9083DF91CF911F91A3
:1010B0000F91FF90EF90DF90CF90BF90AF909F90F7
:1010C0008F900895CF93DF931F92CDB7DEB76983DA
:1010D000DC01ED91FC910280F381E02D41E050E0D4
:1010E000BE016F5F7F4F09950F90DF91CF910895FB
:1010F000CF93DF93EC01E881F9810480F581E02D45
:10110000CE010995892B41F0E881F9810680F781AC
:10111000E02DCE010995EFCFDF91CF91089521E029
:10112000FC018485843009F420E0822F08950F9318
:101130001F93CF93DF938C01D42FC52FFC0184859F
:10114000843041F481E090E0F8019383828380E071
:1011500090E006C00E945613892BA1F38D2F9C2F7F
:10116000DF91CF911F910F910895FC016485643048
:1011700021F087E493E00C94751580E090E00895E9
:10118000CF93DF931F92CDB7DEB741E050E0BE01B1
:101190006F5F7F4FFC0184850E94A7131816190604
:1011A0001CF4898190E002C08FEF9FEF0F90DF91D8
:1011B000CF910895FC0184850C94A7130F931F937E
:1011C000CF93DF931F92CDB7DEB78C01DC01ED9199
:1011D000FC910480F581E02D0995892B51F0BE0129
:1011E0006F5F7F4FF80184850E94ED13898190E045
:1011F00002C08FEF9FEF0F90DF91CF911F910F9162
:101200000895CF92DF92EF92FF920F931F93CF93A7
:10121000DF93CDB7DEB7AF970FB6F894DEBF0FBE42
:10122000CDBF8C016B017A01CE0101960E94431B58
:10123000CE0109960E94C70BCE018A960E94431BDD
:1012400063E273E0CE0184960E94C20DBE016C5D24
:101250007F4FCE0101960E94E00DAE01465D5F4FCB
:10126000B601CE0101960E94521081309105C1F461
:10127000D801ED91FC910484F585E02D8EE192E09A
:101280009DA38CA38CA59DA5AEA5BFA58EA39FA352
:10129000A8A7B9A7A701BE016C5D7F4FC80109953A
:1012A000AF960FB6F894DEBF0FBECDBFDF91CF91E2
:1012B0001F910F91FF90EF90DF90CF900895FC0168
:1012C0001382128288EE93E0A0E0B0E084839583DD
:1012D000A683B78384ED91E091838083648708952A
:1012E000FC018485843039F090E0982F88278D5F49
:1012F0009B4F0C94091580E00895AF92BF92CF9256
:10130000DF92EF92FF920F931F93CF93DF93FC0135
:101310002485243009F03EC06A018B01EC0183E092
:10132000A82E84E0B82EE12CF12CC5010E940915ED
:10133000811102C0EC860BC08B7F8831D9F3FFEF9F
:10134000EF1AFF0AB394E4E0EE16F10471F78C850E
:10135000843001F120910601309107012F5F3F4F4A
:1013600011F420E034E0309307012093060140910E
:1013700006015091070120E061E00E94CC12B80103
:101380006E5F7F4FA6018C850E941813811105C0E6
:1013900084E08C8780E090E011C0CE010E9470094B
:1013A000873151F061E070E080E090E00E947117B9
:1013B000CE010E947009EACF81E090E0DF91CF91E9
:1013C0001F910F91FF90EF90DF90CF90BF90AF9063
:1013D0000895CF92DF92EF92FF92CF93DF93EC01CB
:1013E0008C85843089F10E944F130E9440176B0155
:1013F0007C01CE010E9470098823A1F00E94401751
:10140000DC01CB018C199D09AE09BF09883E9340D0
:10141000A105B10538F461E070E080E090E00E9441
:101420007117E7CFCE010E947009882319F08C85CF
:101430000E94BE12EC85F0E0EE0FFF1FE55DFC4F51
:101440001182108284E08C87DF91CF91FF90EF9022
:10145000DF90CF900895CF93DF93FC012485243053
:10146000D1F0EC010E947009843181F0882371F081
:10147000883161F08C3161F4E881F9810480F58173
:10148000E02DCE01099521E0892B19F420E001C05F
:1014900021E0822F01C080E0DF91CF9108950F936A
:1014A00000E020E040E060E087E193E00E944D1B17
:1014B0000F910895DC01ED91FC91008CF18DE02DF0
:1014C00009942EE132E0FC0131832083FB01418944
:1014D000528963897489FC014283538364837583D1
:1014E0000895FC01858996890895FC01818D928D6E
:1014F0000895CF93DF931F92CDB7DEB76983DC01E8
:10150000ED91FC910280F381E02D41E050E0BE01BD
:101510006F5F7F4F09950F90DF91CF910895CF9323
:10152000DF93EC01898D9A8D892B41F0E881F98157
:101530000680F781E02DCE010995F4CFDF91CF91A0
:101540000895CF93DF93EC018C85843061F00E9485
:10155000BE12EC85F0E0EE0FFF1FE55DFC4F11823F
:10156000108284E08C87DF91CF910895FC01108E6A
:10157000178A6E5F7F4F84850C942914FC01848543
:101580000C944E14CF93DF93EC019A018F89988DC0
:10159000AB01BC018C850E94FB132F89388D280F6D
:1015A000391F388F2F8BDF91CF9108950F931F93A1
:1015B000CF93DF931F92CDB7DEB7FC01218D328D23
:1015C000232B61F08C0141E050E0BE016F5F7F4F43
:1015D00084850E94A713181619061CF08FEF9FEF41
:1015E00008C0F801818D928D0197928F818F89813A
:1015F00090E00F90DF91CF911F910F910895CF93BD
:10160000DF93FC01218D328D2115310519F48FEF07
:101610009FEF11C0EC014217530708F0A9018C8518
:101620000E94A7131816190694F7298D3A8D281BC6
:10163000390B3A8F298FDF91CF910895CF93DF93A4
:101640001F92CDB7DEB7FC01218D328D232B49F0DF
:10165000BE016F5F7F4F84850E94ED13898190E00A
:1016600002C08FEF9FEF0F90DF91CF9108950F93FE
:101670001F93CF93DF93CDB7DEB728970FB6F894BB
:10168000DEBF0FBECDBF8C01DC01ED91FC91028469
:10169000F385E02D0995F801648587E493E00E94C5
:1016A0007515892B51F148E050E0BE016F5F7F4F07
:1016B000D8011C968C910E94A7139C01181619063C
:1016C000D4F4BE016F5F7F4FC8010F960E94591B73
:1016D0008D8190E0982F88272E81820F911DF8012F
:1016E000968B858B2F8130E0322F22278885280F1B
:1016F000311D328F218FC90102C080E090E0289611
:101700000FB6F894DEBF0FBECDBFDF91CF911F9112
:101710000F910895CF92DF92EF92FF920F931F9354
:10172000CF93DF93FC012485243011F080E026C0A4
:101730008B01EC0183E0C82E84E0D82EE12CF12C43
:10174000C6010E940915811102C0EC860AC08831C9
:10175000E1F3FFEFEF1AFF0AD394E4E0EE16F10491
:1017600079F78C85843011F31E870D871A8E198EB8
:1017700020E0A80162E00E94CC1281E0DF91CF91CD
:101780001F910F91FF90EF90DF90CF900895FC0193
:101790001382128288EE93E0A0E0B0E08483958308
:1017A000A683B78380EF91E09183808384E0848770
:1017B000CF010F960C94431BCF92DF92EF92FF92D2
:1017C0000F931F93CF93DF93CDB7DEB7AF970FB6CD
:1017D000F894DEBF0FBECDBF8C016B017A01CE0144
:1017E00001960E94431BCE0109960E94C70BCE01B1
:1017F0008A960E94431B63E273E0CE0184960E94A6
:10180000C20DBE016C5D7F4FCE0101960E94E00DBE
:10181000AE01465D5F4FB601CE0101960E945210A7
:1018200081309105C1F4D801ED91FC910088F189D6
:10183000E02D8EE192E09DA38CA38CA59DA5AEA585
:10184000BFA58EA39FA3A8A7B9A7A701BE016C5DE2
:101850007F4FC8010995AF960FB6F894DEBF0FBE53
:10186000CDBFDF91CF911F910F91FF90EF90DF904F
:10187000CF9008950F9300E020E040E060E08DE11C
:1018800093E00E944D1B0F91089544E050E0BC018D
:1018900081E090E00C94DA1444E050E0BC0185E073
:1018A00090E00C94DA1444E050E0BC018FE090E04A
:1018B0000C94DA148F929F92AF92BF92CF92DF92E4
:1018C000EF92FF920F931F93CF93DF9300D0CDB78A
:1018D000DEB74C015A01690187E493E069837A839A
:1018E0000E949C1446E050E069817A8189E090E092
:1018F0000E94DA14C50102960E94530CC801029698
:101900000E94450CC70102960E944C0CF601828190
:101910009381A481B581F40182839383A483B583E9
:101920000F900F90DF91CF911F910F91FF90EF904B
:10193000DF90CF90BF90AF909F908F9008956F925F
:101940007F928F929F92AF92BF92CF92DF92EF924F
:10195000FF920F931F93CF93DF93CDB7DEB76E97B0
:101960000FB6F894DEBF0FBECDBF6C015B017A01EC
:101970004901380100E02FEF4FEF6FEFCE0149969C
:101980000E944D1BEEE1F2E0FA83E9838B8D9C8D82
:10199000AD8DBE8D8B839C83AD83BE83F887EF8333
:1019A000D30112964D915D916D917C911597498768
:1019B0005A876B877C87FE87ED87D40112964D91FD
:1019C0005D916D917C9115974F87588B698B7A8BC0
:1019D000FC8BEB8BF70182819381A481B5818D8B88
:1019E0009E8BAF8BB88FCE0101967C018E01095F73
:1019F0001F4F9E01235F3F4FAE014D5E5F4FB5010C
:101A0000C6010E945A0C6E960FB6F894DEBF0FBE48
:101A1000CDBFDF91CF911F910F91FF90EF90DF909D
:101A2000CF90BF90AF909F908F907F906F900895D0
:101A3000CF92DF92EF92FF920F931F93CF93DF939A
:101A4000CDB7DEB768970FB6F894DEBF0FBECDBF37
:101A5000F901DA0112960D911D912D913C91159786
:101A60000D8B1E8B2F8B388F4EE152E05A834983AA
:101A7000A1E0A88FCD88DE88EF88F88CCB82DC824D
:101A8000ED82FE8258874F83C280D380E480F58048
:101A9000C986DA86EB86FC865E874D870F87188BB2
:101AA000298B3A8B8E010F5F1F4F9E01295F3F4F9D
:101AB000AE01435F5F4F0E949F0C68960FB6F8948B
:101AC000DEBF0FBECDBFDF91CF911F910F91FF9071
:101AD000EF90DF90CF900895CF92DF92EF92FF9238
:101AE000CF93DF93CDB7DEB762970FB6F894DEBF22
:101AF0000FBECDBFFB01DA0112964D915D916D9144
:101B00007C9115974F87588B698B7A8B2EE132E049
:101B10003A832983A1E0AA8BCF84D888E988FA8800
:101B2000CB82DC82ED82FE8238872F8349875A87F9
:101B30006B877C879E012F5F3F4FAE01495F5F4FF0
:101B4000BF010E94180D62960FB6F894DEBF0FBE5B
:101B5000CDBFDF91CF91FF90EF90DF90CF900895B0
:101B6000CF93DF93EC010E94431BBE016E5F7F4F5A
:101B700044E050E08FE090E00E940C16CE01DF912F
:101B8000CF9108952EE132E0FC0131832083FB01E7
:101B90004281538164817581FC0142835383648354
:101BA000758308950F9300E020E040E060E083E358
:101BB00093E00E944D1B83E293E00F910C94431B32
:101BC000FB014281538164817581FC01428353830F
:101BD00064837583178216820895CF93DF93DA01A9
:101BE000FB01EB0189918111FDCF20E030E080E025
:101BF00090E04AE051915523F1F0843091054CF585
:101C00005E3261F42F3F310509F01CF5ED01C80F7C
:101C1000D91F2A83019620E030E0ECCF429FB0012B
:101C2000439F700D1124252F550F330B205331097D
:101C3000260F371FDFCF2F3F310509F054F48430D2
:101C400091053CF4FD01E80FF91F228381E090E04B
:101C500002C080E090E0DF91CF9108950F9300E003
:101C600020E040E060E089E393E00E944D1B0F918B
:101C700008958F929F92AF92BF92CF92DF92EF9290
:101C8000FF920F931F93CF93DF9300D01F92CDB796
:101C9000DEB77C016B010E944017F70177836683F2
:101CA0008701085F1F4FB7016A5F7F4F42E050E036
:101CB000C8010E94C20A81E090E09A83898342E0D1
:101CC00050E0BE016F5F7F4FC8010E94C20A80E0F2
:101CD00091E09A83898342E050E0BE016F5F7F4FBD
:101CE000C8010E94C20A1A82198242E050E0BE0175
:101CF0006F5F7F4FC8010E94C20A42E050E0BE0100
:101D00006F5F7F4FC8010E94C20A42E050E0BE01EF
:101D10006F5F7F4FC8010E94C20A5601F5018081A2
:101D2000882329F1C6017C01FC0120810196211143
:101D300016C0570147018C189D081814190494F413
:101D40008B8241E050E0BE016D5F7F4FC8010E9471
:101D5000C20AA401B601C8010E94C20A03C02E3201
:101D600011F7E7CF6701FFEFCF1ADF0AD7CF1B824A
:101D700041E050E0BE016D5F7F4FC8010E94C20A82
:101D8000E12CFF24F394FA82E98242E050E0BE01A4
:101D90006F5F7F4FC8010E94C20AFA82E98242E067
:101DA00050E0BE016F5F7F4FC8010E94C20A81E010
:101DB00090E00F900F900F90DF91CF911F910F91B6
:101DC000FF90EF90DF90CF90BF90AF909F908F905B
:101DD00008954F925F926F927F928F929F92AF92EF
:101DE000BF92CF92DF92EF92FF920F931F93CF9308
:101DF000DF93CDB7DEB765970FB6F894DEBF0FBEA1
:101E0000CDBF6C015B017A010E9440172B013C01A0
:101E10008601085F1F4F4501A12CB12CC8010E940B
:101E2000370B18161906A4F00E944017DC01CB01ED
:101E300084199509A609B70988169906AA06BB064A
:101E4000D0F062E370E080E090E00E947117E6CF8E
:101E5000F6014281538164817581818D928DA38DBC
:101E6000B48D481759076A077B0741F4858D968D15
:101E7000C59721F406C02FEF3FEFFCC02EEF3FEFD8
:101E8000F9C0C8010E94750A0C970CF4F1C04CE02F
:101E900050E0BE016F5F7F4FC8010E94FF0A2B8197
:101EA0003C813227232732273A8B298BF601468142
:101EB000578189819A814817590711F437FD06C067
:101EC000C8010E948F0A2CEF3FEFD4C02F703270F0
:101ED000232B31F0C8010E948F0A2BEF3FEFCAC0BD
:101EE000CF80D884DC24CD24DC24C114D10431F487
:101EF000C8010E948F0A2AEF3FEFBCC0A12CB12C71
:101F00008D819E81982789279827A816B90640F5C4
:101F100041E050E0BE01635F7F4FC8010E94FF0AAD
:101F20008D85811113C08D858111F2CFC8010E946A
:101F3000D60AC8010E94D60AC8010E94D60AC80162
:101F40000E94D60AFFEFAF1ABF0ADACF8D859FEF46
:101F5000980F9D87882339F3C8010E94D60AF6CFCF
:101F6000A12CB12C41E050E0BE016D5E7F4FC80155
:101F70000E94FF0A8B89982F907C61F4882371F06E
:101F80008B899FEF980F9B8B882341F0C8010E949B
:101F9000D60AF6CFC8010E94D60A1B8A8B89811106
:101FA000E1CF42E050E0BE01615F7F4FC8010E9477
:101FB000FF0A42E050E0BE01635F7F4FC8010E940C
:101FC000FF0AC8010E94D60AC8010E94D60AC801A9
:101FD0000E94D60AC8010E94D60A42E050E0BE0123
:101FE0006F5E7F4FC8010E94FF0A8F859889811517
:101FF000914001F52D853E85322723273227213058
:102000003105C1F489899A898115944031F0C8015C
:102010000E948F0A27EF3FEF2DC0B7016E5F7F4F01
:1020200044E050E0C8012C8B3D8B0E94FF0A2C89B4
:102030003D8920C0812C912C89899A8998278927EC
:1020400098278816990638F4C8010E94D60A8FEF9F
:10205000881A980AF1CFEFEFAE1ABE0AAC14BD048D
:1020600009F080CFC8010E948F0A26EF3FEF02C01F
:102070002DEF3FEFC90165960FB6F894DEBF0FBE96
:10208000CDBFDF91CF911F910F91FF90EF90DF9027
:10209000CF90BF90AF909F908F907F906F905F9008
:1020A0004F9008958F929F92AF92BF92CF92DF92FE
:1020B000EF92FF920F931F93CF93DF9300D000D046
:1020C00000D0CDB7DEB77C014B015A010E94ED0D67
:1020D0008C01892B09F05BC0F70142815381648137
:1020E000758180913B0390913C03A0913D03B09199
:1020F0003E03481759076A077B0709F44BC00E9443
:1021000040176701F8E0CF0ED11C6F7077277C5F16
:10211000C6010E948A0B813009F03EC08EE192E038
:102120009A838983F70182819381A481B5818B830E
:102130009C83AD83BE8345E350E0BE016F5F7F4F5C
:10214000C6010E94B60A892B19F400E010E01BC0FA
:10215000B401C7010E94390E892BB9F3C6010E9450
:10216000BE0A892B91F383E0882E912CA50168E8A3
:1021700073E1C7010E94E90E8C01F1E08F1A91080A
:1021800011F0019699F3C6010E94A10A05C001E071
:1021900010E002C00EEF1FEFC80126960FB6F894AC
:1021A000DEBF0FBECDBFDF91CF911F910F91FF908A
:1021B000EF90DF90CF90BF90AF909F908F90089559
:1021C000CF93DF931F92CDB7DEB76983DC01ED912A
:1021D000FC910280F381E02D41E050E0BE016F5F91
:1021E0007F4F09950F90DF91CF910895EF92FF9265
:1021F0000F931F93CF93DF93CDB7DEB72D970FB615
:10220000F894DEBF0FBECDBF7C0100E010E0602F70
:10221000CE0101960E945F09CE0101960E947009CD
:10222000811116C0F7014481558120E061E0802FC3
:102230000E94CC12802F0E940413F70184819581A3
:10224000000F111FF801E55DFC4F9183808305C0ED
:102250000F5F1F4F04301105D1F62D960FB6F8947D
:10226000DEBF0FBECDBFDF91CF911F910F91FF90C9
:10227000EF900895FC011382128284E192E0918331
:102280008083758364830895AF92BF92CF92DF926B
:10229000EF92FF921F93CF93DF93CDB7DEB72D97C9
:1022A0000FB6F894DEBF0FBECDBF7C019BE2A92E16
:1022B00093E0B92E10E0C12CD12C612FCE010196F4
:1022C0000E945F09D5012D913D915D01F701848147
:1022D000958128173907B1F4CE0101960E94700943
:1022E000843169F0CE0101960E9470098C3151F45D
:1022F000CE0101960E94B508892B91F003C0CC2431
:10230000C394D12C1F5F1430C1F6CD2871F4D701CE
:10231000ED91FC910480F581E02DC701099505C080
:10232000CE0101960E94E909EDCF2D960FB6F894E3
:10233000DEBF0FBECDBFDF91CF911F91FF90EF9019
:10234000DF90CF90BF90AF9008956F927F928F9261
:102350009F92AF92BF92CF92DF92EF92FF921F9324
:10236000CF93DF93CDB7DEB72D970FB6F894DEBFCE
:102370000FBECDBF5C014B013A010E9444118BE2BC
:10238000C82E83E0D82E10E0E12CF12C612FCE0175
:1023900001960E945F09F601219131916F01F501CB
:1023A000848195812817390731F4CE0101960E9466
:1023B00070098731C1F01F5F143041F7C7012D96B6
:1023C0000FB6F894DEBF0FBECDBFDF91CF911F9146
:1023D000FF90EF90DF90CF90BF90AF909F908F9045
:1023E0007F906F900895A301B401CE0101960E94E1
:1023F0009708E80EF91EDFCFAF92BF92CF92DF921F
:10240000FF920F931F93CF93DF93CDB7DEB72D9736
:102410000FB6F894DEBF0FBECDBF8C015B01CB01C0
:102420000E9444118BE2C82E83E0D82EF12C6F2D30
:10243000CE0101960E945F09F601219131916F0151
:10244000F501848195812817390761F4CE01019641
:102450000E947009873179F0CE0101960E947009BF
:102460008C3149F0F394F4E0FF12E1CF64E0C8014D
:102470000E945F0921C0CE0101960E94B508892BF8
:1024800089F38B819C81F801938382838D819E8166
:10249000AF81B88584839583A683B78389859A8520
:1024A000AB85BC8580879187A287B38784ED91E057
:1024B000918380838D858487C8012D960FB6F8940B
:1024C000DEBF0FBECDBFDF91CF911F910F91FF9067
:1024D000DF90CF90BF90AF9008950F9300E020E081
:1024E00040E060E08FE393E00E944D1B0F91089560
:1024F00090E0982F882744E050E0845F9B4F0C9435
:10250000DA1490E00496982F8827860F971F0C9472
:10251000091562E070E00C9481129B0190E0049632
:10252000982F8827642F820F931F0C947A14CF93CF
:10253000DF93C82FD62F472F64E070E00E948D12E2
:102540004D2F65E070E08C2FDF91CF910C948D12B0
:10255000462F62E070E00C948D12CF93DF93C82F6A
:10256000D62F472F60E170E00E948D124D2F61E160
:1025700070E08C2FDF91CF910C948D12CF93C82FE8
:1025800040E150E0682F87E493E00E94C5166FEFAA
:102590008C2FCF910C94A812FF920F931F93CF937F
:1025A000DF939FEF960F953040F5D22F8A01F62EDC
:1025B000C82F0E94BE124F2D4D2B60E070E08C2F73
:1025C0000E948D120115110511F0B8010AC0609129
:1025D0004503709146036F5F7F4F7093460360938E
:1025E00045038C2F0E94971241E050E06C2F87E446
:1025F00093E00E94C51681E001C080E0DF91CF9199
:102600001F910F91FF900895CF93C82F63E070E062
:102610000E948112833149F442E050E06C2F87E43C
:1026200093E00E94C51681E001C080E0CF9108953B
:102630000F931F93CF93FB0190819F3F51F49181A2
:102640009F3F91F492819F3F79F493819F3F61F482
:1026500020C0911109C09181911106C09281911100
:1026600003C093819923B1F04115510591F08A017E
:10267000BF01C82F0E947812B8018C2F0E94AD12A2
:1026800044E050E06C2F87E493E00E94C51691E08F
:1026900001C090E0892FCF911F910F91089548E0DC
:1026A00050E0682F87E493E00C94C516CF92DF9238
:1026B000EF92FF920F931F93CF93C82F7B018A0154
:1026C0004130584010F000E018E06C2F87E493E0B0
:1026D0000E9441156C0163E070E08C2F0E94811212
:1026E000873111F08C3121F4C016D10670F302C08D
:1026F00000E010E09801A7016C2F87E493E00E94AE
:10270000011640E250E06C2F87E493E00E94C5166A
:102710008C2F0E94891284FD0DC063E070E08C2F25
:102720000E9481128111F4CF8C2F0E94BE1280E092
:1027300090E005C060E18C2F0E94A812C801CF91E3
:102740001F910F91FF90EF90DF90CF900895CF925F
:10275000DF92EF92FF920F931F93CF93DF93182F87
:102760006B017A01682F87E493E00E947515EC01F4
:10277000009799F463E070E0812F0E948112843108
:1027800011F1882301F1C1E0D0E08C3111F4C0E0F7
:10279000D0E0D195C195D10916C0E816F9060CF420
:1027A000E7011C161D067CF400E09E01A601612FC6
:1027B00087E493E00E94751640E450E0612F87E4BF
:1027C00093E00E94C516CE01DF91CF911F910F912A
:1027D000FF90EF90DF90CF9008950F93AB0101E051
:1027E00021E030E0682F87E493E00E94751681E0D5
:1027F00090E00F910895AF92BF92CF92DF92FF9237
:102800000F931F93CF93DF93F82E6B015A01E901C9
:10281000682F87E493E00E9441158C179D0730F4E0
:102820006F2D87E493E00E944115EC018E01950124
:10283000A6016F2D87E493E00E949115CE01DF91F0
:10284000CF911F910F91FF90DF90CF90BF90AF90ED
:1028500008950F931F93CF93FB019081911109C0AD
:102860009181911106C09281911103C093819923A6
:1028700079F04115510561F08A01BF01C82F0E940E
:102880007812B8018C2F0E94AD1281E090E002C056
:1028900080E090E0CF911F910F910895CF93C82FC2
:1028A00040E250E0682F87E493E00E94C5168C2F29
:1028B0000E94891284FD0CC08C2F0E94891283FF14
:1028C000F6CF68E18C2F0E94A81280E090E006C04D
:1028D00060E18C2F0E94A81281E090E0CF910895D2
:1028E0008EBD0DB407FEFDCF8EB508952A980895CC
:1028F0002A9A08951F93CF93DF9300D0CDB7DEB708
:10290000182F6A8399830E94761480EF0E947014B6
:102910009981892F0E947014812F0E9470146A81FE
:10292000862F0E9470140E94781481E00F900F90FF
:10293000DF91CF911F910895CF93DF93EC016CE26B
:1029400071E080E090E00E9471170E94E016229AE8
:1029500060E880E090E00E947A1465E58BE190E009
:102960000E947A1465E58AE190E00E947A1480E082
:1029700090E49983888380E090E69987888780E057
:1029800098E49B838A8380E098E69B878A8780E02F
:1029900090E59D838C8380E090E79D878C8780E025
:1029A00098E59F838E8380E098E79F878E87DF91ED
:1029B000CF910895CF92DF92EF92FF920F931F93E2
:1029C000CF93DF93EC017A018B016C01C40ED51E0D
:1029D000CC15DD05A1F00E94761480EF0E947014E2
:1029E0008D2F0E9470148C2F0E9470142196F80174
:1029F00081918F010E9470140E947814E9CFC70161
:102A0000DF91CF911F910F91FF90EF90DF90CF90CA
:102A100008951F93CF93DF931F92CDB7DEB7182F82
:102A200099830E9476148FE00E9470149981892FF7
:102A30000E947014812F0E94701480E00E94701414
:102A400089830E94781489810F90DF91CF911F9123
:102A500008951F93CF93DF93182F60E270E00E94D8
:102A60008112C82FD0E061E270E0812F0E948112B4
:102A7000DC2FCC279E01282BC901DF91CF911F911C
:102A80000895FF920F931F93CF93DF93F62EC0E02C
:102A9000D0E08F2D0E9429158C01892B21F08F2DDC
:102AA0000E942915EC01C017D10799F7CE01DF91DB
:102AB000CF911F910F91FF9008951F93CF93DF93B4
:102AC000182F66E270E00E948112C82FD0E067E202
:102AD00070E0812F0E948112DC2FCC279E01282BD1
:102AE000C901DF91CF911F910895FF920F931F931A
:102AF000CF93DF93F62EC0E0D0E08F2D0E945D15BE
:102B00008C01892B21F08F2D0E945D15EC01C017DF
:102B1000D10799F7CE01DF91CF911F910F91FF90CF
:102B200008956F927F928F929F92AF92BF92CF92B1
:102B3000DF92EF92FF920F931F93CF93DF931F9239
:102B4000CDB7DEB7882E962E6A01590164E270E097
:102B5000892D99830E948112E82EF12C65E270E0A4
:102B6000892D0E948112FE2CEE24E82A37016C0C7C
:102B70007D1CA3015770E82C9981F92EE90CF11CFA
:102B8000E90CF11CF70180819181840F951F9A0156
:102B9000200F311F2130384098F060E078E06B0161
:102BA000C41AD50AA601B5010E94DA14A8014C196D
:102BB0005D09B5016C0D7D1DF7018081918102C019
:102BC000A801B5010E94DA14060D171D412F64E219
:102BD00070E0892D0E948D12402F65E270E0892DF2
:102BE0000F90DF91CF911F910F91FF90EF90DF90A9
:102BF000CF90BF90AF909F908F907F906F900C94EC
:102C00008D120F931F9389019A0140E050E00E94BA
:102C100091151F910F910895CF92DF92EF92FF923D
:102C20000F931F93CF93DF93EC017A018B016C011B
:102C3000C40ED51ECC15DD05A9F00E9476148FE0D8
:102C40000E9470148D2F0E9470148C2F0E9470149B
:102C5000219680E00E947014F80181938F010E94F8
:102C60007814E8CFC701DF91CF911F910F91FF90AA
:102C7000EF90DF90CF900895CF92DF92EF92FF9286
:102C80000F931F93CF93DF93690157707C01E60E7A
:102C9000F11CE60EF11CF70180859185840F951FCC
:102CA0009A01200F311F2130384098F0E0E0F8E021
:102CB000EF01C41BD50BAE01B6010E940C16A80192
:102CC0004C1B5D0BB6016C0F7D1FF7018085918554
:102CD00002C0A801B601DF91CF911F910F91FF9023
:102CE000EF90DF90CF900C940C168F929F92AF9242
:102CF000BF92CF92DF92EF92FF920F931F93CF93E9
:102D0000DF936C01962E5A017901802E68E270E003
:102D1000892D0E948112C82FD0E069E270E0892DD0
:102D20000E948112DC2FCC27C82B87019501AE01B0
:102D3000692DC6010E943C1681101AC0CE0DDF1D00
:102D40004D2F68E270E0892D0E948D124C2F69E2B0
:102D500070E0892DDF91CF911F910F91FF90EF903F
:102D6000DF90CF90BF90AF909F908F900C948D127A
:102D7000DF91CF911F910F91FF90EF90DF90CF9057
:102D8000BF90AF909F908F900895CF93C62F61E032
:102D900070E08C2F0E948D1261E070E08C2F0E94F9
:102DA00081128111F9CFCF9108950F9300E020E0B7
:102DB00040E060E087E593E00E944D1B0F9108958D
:102DC00061E08AE00E94371861E08AE00E94FB1708
:102DD0008CB580618CBD8CB580648CBD61E08DE06C
:102DE0000E94FB1761E08BE00C94FB171F920F927F
:102DF0000FB60F9211242F933F938F939F93AF930E
:102E0000BF9380915E0390915F03A0916003B091A6
:102E1000610330915D0323E0230F2D3720F40196E9
:102E2000A11DB11D05C026E8230F0296A11DB11DED
:102E300020935D0380935E0390935F03A0936003F0
:102E4000B09361038091620390916303A091640346
:102E5000B09165030196A11DB11D8093620390930B
:102E60006303A0936403B0936503BF91AF919F91F7
:102E70008F913F912F910F900FBE0F901F9018953B
:102E80002FB7F89460915E0370915F0380916003A7
:102E9000909161032FBF08953FB7F894809162032A
:102EA00090916303A0916403B091650326B5A89B3C
:102EB00005C02F3F19F00196A11DB11D3FBFBA2FCC
:102EC000A92F982F8827820F911DA11DB11DBC012C
:102ED000CD0142E0660F771F881F991F4A95D1F7F1
:102EE0000895CF92DF92EF92FF92CF93DF936B0121
:102EF0007C010E944C17EB01C114D104E104F104E0
:102F000079F00E944C176C1B7D0B683E7340A0F358
:102F100081E0C81AD108E108F108C851DC4FECCFB4
:102F2000DF91CF91FF90EF90DF90CF90089578944C
:102F300084B5826084BD84B5816084BD85B58260BE
:102F400085BD85B5816085BDEEE6F0E0808181605C
:102F50008083E1E8F0E0108280818260808380815C
:102F600081608083E0E8F0E0808181608083E1EB34
:102F7000F0E0808184608083E0EBF0E0808181601C
:102F80008083EAE7F0E080818460808380818260D2
:102F900080838081816080838081806880831092BB
:102FA000C1000895833081F028F4813099F0823097
:102FB000A1F008958630A9F08730B9F08430D1F4BB
:102FC000809180008F7D03C0809180008F778093F7
:102FD0008000089584B58F7702C084B58F7D84BD4D
:102FE00008958091B0008F7703C08091B0008F7DED
:102FF0008093B0000895CF93DF9390E0FC01E458F4
:10300000FF4F2491FC01E057FF4F8491882361F129
:1030100090E0880F991FFC01E255FF4FC591D491B4
:10302000FC01EC55FF4FA591B491611109C09FB708
:10303000F8948881209582238883EC912E230BC0FD
:10304000623061F49FB7F8943881822F8095832392
:103050008883EC912E2B2C939FBF06C08FB7F894DA
:10306000E8812E2B28838FBFDF91CF9108951F9386
:10307000CF93DF93282F30E0F901E859FF4F849177
:10308000F901E458FF4FD491F901E057FF4FC49183
:10309000CC23C9F0162F81110E94D217EC2FF0E03B
:1030A000EE0FFF1FEC55FF4FA591B4918FB7F89429
:1030B000111105C09C91ED2FE095E92302C0EC9120
:1030C000ED2BEC938FBFDF91CF911F910895CF939C
:1030D000DF938230910510F482E090E0E0911804D3
:1030E000F091190420E030E0C0E0D0E0309711F119
:1030F0004081518148175907C0F04817590761F4BA
:1031000082819381209719F09B838A832BC09093AF
:1031100019048093180426C02115310519F04217AF
:10312000530718F49A01BE01DF01EF010280F38119
:10313000E02DDCCF2115310509F1281B390B243096
:10314000310590F412968D919C911397611571053C
:1031500021F0FB019383828304C090931904809330
:103160001804FD01329644C0FD01E20FF31F819364
:103170009193225031092D933C933AC0209116042B
:1031800030911704232B41F420910A0130910B0157
:1031900030931704209316042091080130910901FF
:1031A0002115310541F42DB73EB740910C015091E6
:1031B0000D01241B350BE0911604F0911704E21762
:1031C000F307A0F42E1B3F0B2817390778F0AC014A
:1031D0004E5F5F4F2417350748F04E0F5F1F509327
:1031E0001704409316048193919302C0E0E0F0E04D
:1031F000CF01DF91CF9108950F931F93CF93DF936A
:10320000009709F48CC0FC0132971382128200915E
:103210001804109119040115110581F420813181E0
:10322000820F931F20911604309117042817390735
:1032300079F5F0931704E093160471C0D80140E0CB
:1032400050E0AE17BF0750F412962D913C911397A2
:10325000AD012115310509F1D901F3CF9D01DA0145
:103260003383228360817181860F971F82179307B2
:1032700069F4EC0128813981260F371F2E5F3F4FFB
:10328000318320838A819B8193838283452B29F418
:10329000F0931904E093180442C01396FC93EE9344
:1032A0001297ED01499159919E01240F351FE217A4
:1032B000F30771F480819181840F951F0296119616
:1032C0009C938E938281938113969C938E931297F5
:1032D000E0E0F0E0D80112968D919C911397009751
:1032E00019F0F8018C01F6CF8D919C9198012E5F19
:1032F0003F4F820F931F2091160430911704281717
:10330000390769F4309729F41092190410921804BF
:1033100002C0138212821093170400931604DF91E7
:10332000CF911F910F9108950E9497170E94E40575
:10333000C3E4DCE10E9457042097E1F30E94431CA0
:10334000F9CFCF92DF92EF92FF920F931F93CF931B
:10335000DF936C01EB017B01E40EF51E00E010E051
:10336000CE15DF0561F06991D601ED91FC910190D8
:10337000F081E02DC6010995080F191FF1CFC80192
:10338000DF91CF911F910F91FF90EF90DF90CF9041
:1033900008956115710579F0FB0101900020E9F7AE
:1033A0003197AF01461B570BDC01ED91FC91028078
:1033B000F381E02D099480E090E008950C94C91900
:1033C000DC01ED91FC910190F081E02D0994DB018D
:1033D000ED91FC9111970190F081E02DBC01CD01A0
:1033E00009940F931F93CF93DF93EC016DE00E943C
:1033F000E0198C016AE0CE010E94E019800F911F54
:10340000DF91CF911F910F9108950F931F93CF9349
:10341000DF93EC010E94C9198C01CE010E94F119C1
:10342000800F911FDF91CF911F910F9108950F93FE
:103430001F93CF93DF93EC010E94E7198C01CE011B
:103440000E94F119800F911FDF91CF911F910F9171
:1034500008958F929F92AF92BF92CF92DF92EF9298
:10346000FF920F931F93CF93DF93CDB7DEB7A19752
:103470000FB6F894DEBF0FBECDBF6C01142FE52F41
:10348000CB01022F19A2223008F40AE07E0121E2CA
:10349000E20EF11C802E912CA12CB12C612F7E2FDD
:1034A000A50194010E94AB1D029F1019112481E017
:1034B000E81AF1081A3014F4105D01C0195CF70124
:1034C0001083122FE32FCA01232B242B252B31F736
:1034D000B701C6010E94C919A1960FB6F894DEBFC4
:1034E0000FBECDBFDF91CF911F910F91FF90EF9055
:1034F000DF90CF90BF90AF909F908F900895CF9224
:10350000DF92EF92FF920F931F93CF93DF93EC0123
:103510006A017B012115310579F4E881F981019077
:10352000F081E02D642FDF91CF911F910F91FF90DB
:10353000EF90DF90CF9009942A303105E9F477FFBE
:103540001AC06DE20E94E0198C0144275527BA0188
:103550004C195D096E097F092AE0CE010E94291AE3
:10356000800F911FDF91CF911F910F91FF90EF90EE
:10357000DF90CF9008952AE0B701A601CE01DF9138
:10358000CF911F910F91FF90EF90DF90CF900C940F
:10359000291A0F931F93CF93DF93EC019A01AB018C
:1035A000770F660B770B0E947F1A8C01CE010E9469
:1035B000F119800F911FDF91CF911F910F91089505
:1035C0002115310541F4DC01ED91FC910190F08170
:1035D000E02D642F09940C94291A9A01462F50E08B
:1035E00060E070E00C94E01AFC0181E090E0208142
:1035F000222311F080E090E0089521E0FC01208377
:1036000008958F929F92AF92BF92CF92DF92EF92E6
:10361000FF920F931F93CF93DF937C018B016C017B
:1036200082E0C80ED11C4701E5E08E0E911CC0E07F
:10363000D0E0F60161916F014AE050E0C8010E94BC
:10364000ED1A5C016EE2C8010E94E0198A0D9B1D13
:10365000C80FD91FC814D90461F74AE050E0F70138
:103660006581C8010E94ED1A8C0F9D1FDF91CF91DB
:103670001F910F91FF90EF90DF90CF90BF90AF9090
:103680009F908F9008952EE132E0FC0131832083DA
:10369000128213821482158208950F93FC018EE129
:1036A00092E09183808362834383248305830F9117
:1036B0000895FB014081518162817381FC01428345
:1036C0005383648375830895E6E6F3E08EE192E028
:1036D0009183808312821382148215820895FC01E3
:1036E00024853585F901E05CFF4F80819181329618
:1036F00020813181821B930B8F7399270895DC0100
:103700001C96ED91FC911D97DF01A05CBF4F2D91A0
:103710003C91119712968D919C911197281739071A
:1037200039F08D919C91E80FF91F808190E0089508
:103730008FEF9FEF0895FC01A485B585FD01E05C46
:10374000FF4F20813181329680819181281739077E
:1037500079F080819181A80FB91F8C9120813181EE
:103760002F5F3F4F2F7333273183208390E00895DD
:103770008FEF9FEF0895FC0181A1882329F0A48990
:10378000B5898C9186FFFBCF11A208950F931F93EB
:10379000CF93DF93FC01A685B7858D01005C1F4F99
:1037A000E8018881998101968F739927AD014E5B5D
:1037B0005F4FEA012881398182179307D1F3E8012D
:1037C00028813981A20FB31F6C93A685B785A05CB1
:1037D000BF4F11969C938E93A689B7892C9181E057
:1037E00090E0078C02C0880F991F0A94E2F7822BA1
:1037F0008C9381E081A30488F589E02D8081806429
:10380000808381E090E0DF91CF911F910F91089527
:1038100008951F920F920FB60F9211242F934F937A
:103820005F938F939F93EF93FF938091C00082FDEE
:103830001CC02091C600809112049091130401963F
:103840008F7399274091140450911504841795079C
:1038500071F0E0911204F0911304EE52FC4F2083BA
:10386000909313048093120402C08091C600FF91CC
:10387000EF919F918F915F914F912F910F900FBE7C
:103880000F901F9018958CE693E00E946F1B892B78
:1038900011F00C94081C08951F920F920FB60F920E
:1038A00011242F933F938F939F93EF93FF93209136
:1038B000CE033091CF038091D0039091D10328178C
:1038C000390731F48091C1008F7D8093C10014C00D
:1038D000E091D003F091D103E257FC4F2081809119
:1038E000D0039091D10301968F7399279093D103C0
:1038F0008093D0032093C600FF91EF919F918F9109
:103900003F912F910F900FBE0F901F901895CF925F
:10391000DF92EF92FF920F931F93CF93DF93EC010F
:103920006A017B014115514E6105710509F1EC8970
:10393000FD8981E090E008A002C0880F991F0A94D9
:10394000E2F7808360E079E08DE390E0A7019601E3
:103950000E94AB1D89019A01015011092109310909
:103960003695279517950795980101151041A8F0F0
:10397000EC89FD89108260E874E88EE190E0A7018F
:1039800096010E94AB1DDA01C9010197A109B10995
:10399000B695A795979587959C01E889F989308315
:1039A000EA89FB89208319A2EE89FF89408181E0A1
:1039B00090E09C010C8C02C0220F331F0A94E2F7A6
:1039C000242B2083EE89FF8940819C010D8C02C04D
:1039D000220F331F0A94E2F7242B2083EE89FF89FC
:1039E00040819C010E8C02C0220F331F0A94E2F723
:1039F000242B2083EE89FF8920810F8C02C0880F41
:103A0000991F0A94E2F7809582238083DF91CF91FA
:103A10001F910F91FF90EF90DF90CF90089581E07C
:103A20000895ECE6F3E01382128288EE93E0A0E0C2
:103A3000B0E084839583A683B78384E292E0918388
:103A4000808382ED93E0958784878EE893E0978763
:103A5000868785EC90E0918B808B84EC90E0938B53
:103A6000828B80EC90E0958B848B81EC90E0978B3F
:103A7000868B82EC90E0918F808F86EC90E0938F24
:103A8000828F84E0848F83E0858F87E0868F85E056
:103A9000878F81E080A308950E94531D6894B1111F
:103AA0000C94A51D08950E948A1D88F09F5798F0D8
:103AB000B92F9927B751B0F0E1F0660F771F881F33
:103AC000991F1AF0BA95C9F714C0B13091F00E944D
:103AD000A41DB1E008950C94A41D672F782F8827AA
:103AE000B85F39F0B93FCCF3869577956795B39574
:103AF000D9F73EF490958095709561957F4F8F4FE3
:103B00009F4F089557FD9058440F551F59F05F3F40
:103B100071F04795880F97FB991F61F09F3F79F0EF
:103B200087950895121613061406551FF2CF469571
:103B3000F1DF08C0161617061806991FF1CF8695F3
:103B40007105610508940895E894BB2766277727D7
:103B5000CB0197F90895A1E21A2EAA1BBB1BFD0108
:103B60000DC0AA1FBB1FEE1FFF1FA217B307E4075C
:103B7000F50720F0A21BB30BE40BF50B661F771FB4
:103B8000881F991F1A9469F7609570958095909594
:103B90009B01AC01BD01CF010895EE0FFF1F059001
:103BA000F491E02D0994DC0101C06D934150504027
:103BB000E0F70895FB01DC018D910190801901105F
:103BC000D9F3990B089510E0C5E6D0E004C0FE01DA
:103BD0000E94CD1D2196C636D107C9F7F894FFCFB4
:103BE000DEADBEEFFEED000400001A048000485474
:103BF00054502F312E3120323030204F4B00436F44
:103C00006E74656E742D547970653A206170706CB5
:103C100069636174696F6E2F6A736F6E00436F6EB4
:103C20006E656374696F6E3A20636C6F7365007BB9
:103C3000226D6F7665223A7B2264697265637469CE
:103C40006F6E223A312C227370656564223A327DA0
:103C50007D0022225C5C6208660C6E0A720D74099B
:103C6000006E657720636C69656E7400636C6965CE
:103C70006E7420646973636F6E6E6563746564004F
:103C80004D4553534147453A00636D6400780079D0
:103C900000636F6C6F72006E756C6C00736572768A
:103CA000657220697320617420000000000090009C
:103CB0000000000062089708B508C008DE08780810
:103CC0007D090109DA08E9092B0A8F0800000000C4
:103CD000790AC20A750AD60A1E0B8F0A8A0BA10A34
:103CE000B60ADC0BBE0A370BFF0A5A0A610A710AD0
:103CF00000000000E010A511F61000000000011BFC
:103D000000000000C61BA1196F1B9B1B7F1BBB1B68
:00000001FF
